{
  "_format": "hh-sol-artifact-1",
  "contractName": "Package",
  "sourceName": "contracts/package.sol",
  "abi": [
    {
      "inputs": [
        {
          "internalType": "address",
          "name": "vrfCoordinator",
          "type": "address"
        },
        {
          "internalType": "uint64",
          "name": "subscriptionId",
          "type": "uint64"
        },
        {
          "internalType": "bytes32",
          "name": "gasLane",
          "type": "bytes32"
        },
        {
          "internalType": "uint32",
          "name": "callbackGasLimit",
          "type": "uint32"
        }
      ],
      "stateMutability": "nonpayable",
      "type": "constructor"
    },
    {
      "inputs": [
        {
          "internalType": "address",
          "name": "have",
          "type": "address"
        },
        {
          "internalType": "address",
          "name": "want",
          "type": "address"
        }
      ],
      "name": "OnlyCoordinatorCanFulfill",
      "type": "error"
    },
    {
      "anonymous": false,
      "inputs": [
        {
          "indexed": true,
          "internalType": "address",
          "name": "owner",
          "type": "address"
        },
        {
          "indexed": true,
          "internalType": "address",
          "name": "approved",
          "type": "address"
        },
        {
          "indexed": true,
          "internalType": "uint256",
          "name": "tokenId",
          "type": "uint256"
        }
      ],
      "name": "Approval",
      "type": "event"
    },
    {
      "anonymous": false,
      "inputs": [
        {
          "indexed": true,
          "internalType": "address",
          "name": "owner",
          "type": "address"
        },
        {
          "indexed": true,
          "internalType": "address",
          "name": "operator",
          "type": "address"
        },
        {
          "indexed": false,
          "internalType": "bool",
          "name": "approved",
          "type": "bool"
        }
      ],
      "name": "ApprovalForAll",
      "type": "event"
    },
    {
      "anonymous": false,
      "inputs": [
        {
          "indexed": true,
          "internalType": "uint256",
          "name": "id",
          "type": "uint256"
        },
        {
          "indexed": false,
          "internalType": "string",
          "name": "oldString",
          "type": "string"
        },
        {
          "indexed": false,
          "internalType": "string",
          "name": "newString",
          "type": "string"
        }
      ],
      "name": "DescriptionListEdited",
      "type": "event"
    },
    {
      "anonymous": false,
      "inputs": [
        {
          "indexed": true,
          "internalType": "uint256",
          "name": "id",
          "type": "uint256"
        },
        {
          "indexed": false,
          "internalType": "string",
          "name": "oldString",
          "type": "string"
        },
        {
          "indexed": false,
          "internalType": "string",
          "name": "newString",
          "type": "string"
        }
      ],
      "name": "ImageUriListEdited",
      "type": "event"
    },
    {
      "anonymous": false,
      "inputs": [
        {
          "indexed": true,
          "internalType": "address",
          "name": "previousOwner",
          "type": "address"
        },
        {
          "indexed": true,
          "internalType": "address",
          "name": "newOwner",
          "type": "address"
        }
      ],
      "name": "OwnershipTransferred",
      "type": "event"
    },
    {
      "anonymous": false,
      "inputs": [
        {
          "indexed": true,
          "internalType": "uint256",
          "name": "id",
          "type": "uint256"
        },
        {
          "indexed": false,
          "internalType": "string",
          "name": "oldString",
          "type": "string"
        },
        {
          "indexed": false,
          "internalType": "string",
          "name": "newString",
          "type": "string"
        }
      ],
      "name": "TitleListEdited",
      "type": "event"
    },
    {
      "anonymous": false,
      "inputs": [
        {
          "indexed": false,
          "internalType": "uint256",
          "name": "tokenId",
          "type": "uint256"
        },
        {
          "indexed": false,
          "internalType": "uint256",
          "name": "time",
          "type": "uint256"
        }
      ],
      "name": "TokenInStock",
      "type": "event"
    },
    {
      "anonymous": false,
      "inputs": [
        {
          "indexed": false,
          "internalType": "uint256",
          "name": "requestId",
          "type": "uint256"
        },
        {
          "indexed": false,
          "internalType": "uint256",
          "name": "randomNumber",
          "type": "uint256"
        }
      ],
      "name": "TokenMinted",
      "type": "event"
    },
    {
      "anonymous": false,
      "inputs": [
        {
          "indexed": false,
          "internalType": "uint256",
          "name": "tokenId",
          "type": "uint256"
        },
        {
          "indexed": false,
          "internalType": "uint256",
          "name": "time",
          "type": "uint256"
        }
      ],
      "name": "TokenPoduced",
      "type": "event"
    },
    {
      "anonymous": false,
      "inputs": [
        {
          "indexed": true,
          "internalType": "uint256",
          "name": "requestId",
          "type": "uint256"
        },
        {
          "indexed": false,
          "internalType": "address",
          "name": "requester",
          "type": "address"
        }
      ],
      "name": "TokenRequested",
      "type": "event"
    },
    {
      "anonymous": false,
      "inputs": [
        {
          "indexed": false,
          "internalType": "uint256",
          "name": "tokenId",
          "type": "uint256"
        },
        {
          "indexed": false,
          "internalType": "uint256",
          "name": "time",
          "type": "uint256"
        }
      ],
      "name": "TokenSold",
      "type": "event"
    },
    {
      "anonymous": false,
      "inputs": [
        {
          "indexed": true,
          "internalType": "address",
          "name": "from",
          "type": "address"
        },
        {
          "indexed": true,
          "internalType": "address",
          "name": "to",
          "type": "address"
        },
        {
          "indexed": true,
          "internalType": "uint256",
          "name": "tokenId",
          "type": "uint256"
        }
      ],
      "name": "Transfer",
      "type": "event"
    },
    {
      "inputs": [
        {
          "internalType": "address",
          "name": "to",
          "type": "address"
        },
        {
          "internalType": "uint256",
          "name": "tokenId",
          "type": "uint256"
        }
      ],
      "name": "approve",
      "outputs": [],
      "stateMutability": "nonpayable",
      "type": "function"
    },
    {
      "inputs": [
        {
          "internalType": "address",
          "name": "owner",
          "type": "address"
        }
      ],
      "name": "balanceOf",
      "outputs": [
        {
          "internalType": "uint256",
          "name": "",
          "type": "uint256"
        }
      ],
      "stateMutability": "view",
      "type": "function"
    },
    {
      "inputs": [
        {
          "internalType": "uint256",
          "name": "tokenId",
          "type": "uint256"
        }
      ],
      "name": "getApproved",
      "outputs": [
        {
          "internalType": "address",
          "name": "",
          "type": "address"
        }
      ],
      "stateMutability": "view",
      "type": "function"
    },
    {
      "inputs": [
        {
          "internalType": "uint256",
          "name": "index",
          "type": "uint256"
        }
      ],
      "name": "getDescription",
      "outputs": [
        {
          "internalType": "string",
          "name": "",
          "type": "string"
        }
      ],
      "stateMutability": "view",
      "type": "function"
    },
    {
      "inputs": [],
      "name": "getGasLane",
      "outputs": [
        {
          "internalType": "bytes32",
          "name": "",
          "type": "bytes32"
        }
      ],
      "stateMutability": "view",
      "type": "function"
    },
    {
      "inputs": [
        {
          "internalType": "uint256",
          "name": "index",
          "type": "uint256"
        }
      ],
      "name": "getImageURI",
      "outputs": [
        {
          "internalType": "string",
          "name": "",
          "type": "string"
        }
      ],
      "stateMutability": "view",
      "type": "function"
    },
    {
      "inputs": [
        {
          "internalType": "uint256",
          "name": "index",
          "type": "uint256"
        }
      ],
      "name": "getTitle",
      "outputs": [
        {
          "internalType": "string",
          "name": "",
          "type": "string"
        }
      ],
      "stateMutability": "view",
      "type": "function"
    },
    {
      "inputs": [],
      "name": "getTokenCounter",
      "outputs": [
        {
          "internalType": "uint256",
          "name": "",
          "type": "uint256"
        }
      ],
      "stateMutability": "view",
      "type": "function"
    },
    {
      "inputs": [
        {
          "internalType": "uint256",
          "name": "index",
          "type": "uint256"
        }
      ],
      "name": "getTokenDetails",
      "outputs": [
        {
          "components": [
            {
              "internalType": "enum Package.TokenState",
              "name": "state",
              "type": "uint8"
            },
            {
              "internalType": "uint256",
              "name": "uniqueId",
              "type": "uint256"
            },
            {
              "internalType": "uint256",
              "name": "titleId",
              "type": "uint256"
            },
            {
              "internalType": "uint256",
              "name": "descriptionId",
              "type": "uint256"
            },
            {
              "internalType": "uint256",
              "name": "imageUriId",
              "type": "uint256"
            },
            {
              "internalType": "uint256",
              "name": "producedTime",
              "type": "uint256"
            },
            {
              "internalType": "uint256",
              "name": "inStockTime",
              "type": "uint256"
            },
            {
              "internalType": "uint256",
              "name": "soldTime",
              "type": "uint256"
            }
          ],
          "internalType": "struct Package.TokenDetails",
          "name": "",
          "type": "tuple"
        }
      ],
      "stateMutability": "view",
      "type": "function"
    },
    {
      "inputs": [
        {
          "internalType": "uint256",
          "name": "id",
          "type": "uint256"
        }
      ],
      "name": "getTokenDetailsByUniqueId",
      "outputs": [
        {
          "components": [
            {
              "internalType": "enum Package.TokenState",
              "name": "state",
              "type": "uint8"
            },
            {
              "internalType": "uint256",
              "name": "uniqueId",
              "type": "uint256"
            },
            {
              "internalType": "uint256",
              "name": "titleId",
              "type": "uint256"
            },
            {
              "internalType": "uint256",
              "name": "descriptionId",
              "type": "uint256"
            },
            {
              "internalType": "uint256",
              "name": "imageUriId",
              "type": "uint256"
            },
            {
              "internalType": "uint256",
              "name": "producedTime",
              "type": "uint256"
            },
            {
              "internalType": "uint256",
              "name": "inStockTime",
              "type": "uint256"
            },
            {
              "internalType": "uint256",
              "name": "soldTime",
              "type": "uint256"
            }
          ],
          "internalType": "struct Package.TokenDetails",
          "name": "",
          "type": "tuple"
        }
      ],
      "stateMutability": "view",
      "type": "function"
    },
    {
      "inputs": [
        {
          "internalType": "uint256",
          "name": "id",
          "type": "uint256"
        }
      ],
      "name": "getTokenNumberByUniqueId",
      "outputs": [
        {
          "internalType": "uint256",
          "name": "",
          "type": "uint256"
        }
      ],
      "stateMutability": "view",
      "type": "function"
    },
    {
      "inputs": [],
      "name": "getVrfCoordinatorAddress",
      "outputs": [
        {
          "internalType": "address",
          "name": "",
          "type": "address"
        }
      ],
      "stateMutability": "view",
      "type": "function"
    },
    {
      "inputs": [],
      "name": "getVrfCoordinatorSubId",
      "outputs": [
        {
          "internalType": "uint64",
          "name": "",
          "type": "uint64"
        }
      ],
      "stateMutability": "view",
      "type": "function"
    },
    {
      "inputs": [
        {
          "internalType": "address",
          "name": "owner",
          "type": "address"
        },
        {
          "internalType": "address",
          "name": "operator",
          "type": "address"
        }
      ],
      "name": "isApprovedForAll",
      "outputs": [
        {
          "internalType": "bool",
          "name": "",
          "type": "bool"
        }
      ],
      "stateMutability": "view",
      "type": "function"
    },
    {
      "inputs": [
        {
          "internalType": "address",
          "name": "manager",
          "type": "address"
        }
      ],
      "name": "isManager",
      "outputs": [
        {
          "internalType": "bool",
          "name": "",
          "type": "bool"
        }
      ],
      "stateMutability": "view",
      "type": "function"
    },
    {
      "inputs": [
        {
          "internalType": "address",
          "name": "producer",
          "type": "address"
        }
      ],
      "name": "isProducer",
      "outputs": [
        {
          "internalType": "bool",
          "name": "",
          "type": "bool"
        }
      ],
      "stateMutability": "view",
      "type": "function"
    },
    {
      "inputs": [
        {
          "internalType": "address",
          "name": "suplier",
          "type": "address"
        }
      ],
      "name": "isSuplier",
      "outputs": [
        {
          "internalType": "bool",
          "name": "",
          "type": "bool"
        }
      ],
      "stateMutability": "view",
      "type": "function"
    },
    {
      "inputs": [
        {
          "internalType": "uint32",
          "name": "countOfNft",
          "type": "uint32"
        }
      ],
      "name": "mintNft",
      "outputs": [
        {
          "internalType": "uint256",
          "name": "requestId",
          "type": "uint256"
        }
      ],
      "stateMutability": "nonpayable",
      "type": "function"
    },
    {
      "inputs": [],
      "name": "name",
      "outputs": [
        {
          "internalType": "string",
          "name": "",
          "type": "string"
        }
      ],
      "stateMutability": "view",
      "type": "function"
    },
    {
      "inputs": [],
      "name": "owner",
      "outputs": [
        {
          "internalType": "address",
          "name": "",
          "type": "address"
        }
      ],
      "stateMutability": "view",
      "type": "function"
    },
    {
      "inputs": [
        {
          "internalType": "uint256",
          "name": "tokenId",
          "type": "uint256"
        }
      ],
      "name": "ownerOf",
      "outputs": [
        {
          "internalType": "address",
          "name": "",
          "type": "address"
        }
      ],
      "stateMutability": "view",
      "type": "function"
    },
    {
      "inputs": [
        {
          "internalType": "uint256",
          "name": "requestId",
          "type": "uint256"
        },
        {
          "internalType": "uint256[]",
          "name": "randomWords",
          "type": "uint256[]"
        }
      ],
      "name": "rawFulfillRandomWords",
      "outputs": [],
      "stateMutability": "nonpayable",
      "type": "function"
    },
    {
      "inputs": [],
      "name": "renounceOwnership",
      "outputs": [],
      "stateMutability": "nonpayable",
      "type": "function"
    },
    {
      "inputs": [
        {
          "internalType": "address",
          "name": "manager",
          "type": "address"
        }
      ],
      "name": "resetManager",
      "outputs": [],
      "stateMutability": "nonpayable",
      "type": "function"
    },
    {
      "inputs": [
        {
          "internalType": "address",
          "name": "producer",
          "type": "address"
        }
      ],
      "name": "resetProducer",
      "outputs": [],
      "stateMutability": "nonpayable",
      "type": "function"
    },
    {
      "inputs": [
        {
          "internalType": "address",
          "name": "suplier",
          "type": "address"
        }
      ],
      "name": "resetSuplier",
      "outputs": [],
      "stateMutability": "nonpayable",
      "type": "function"
    },
    {
      "inputs": [
        {
          "internalType": "uint256",
          "name": "",
          "type": "uint256"
        }
      ],
      "name": "s_requestIdSender",
      "outputs": [
        {
          "internalType": "address",
          "name": "",
          "type": "address"
        }
      ],
      "stateMutability": "view",
      "type": "function"
    },
    {
      "inputs": [
        {
          "internalType": "address",
          "name": "from",
          "type": "address"
        },
        {
          "internalType": "address",
          "name": "to",
          "type": "address"
        },
        {
          "internalType": "uint256",
          "name": "tokenId",
          "type": "uint256"
        }
      ],
      "name": "safeTransferFrom",
      "outputs": [],
      "stateMutability": "nonpayable",
      "type": "function"
    },
    {
      "inputs": [
        {
          "internalType": "address",
          "name": "from",
          "type": "address"
        },
        {
          "internalType": "address",
          "name": "to",
          "type": "address"
        },
        {
          "internalType": "uint256",
          "name": "tokenId",
          "type": "uint256"
        },
        {
          "internalType": "bytes",
          "name": "data",
          "type": "bytes"
        }
      ],
      "name": "safeTransferFrom",
      "outputs": [],
      "stateMutability": "nonpayable",
      "type": "function"
    },
    {
      "inputs": [
        {
          "internalType": "address",
          "name": "operator",
          "type": "address"
        },
        {
          "internalType": "bool",
          "name": "approved",
          "type": "bool"
        }
      ],
      "name": "setApprovalForAll",
      "outputs": [],
      "stateMutability": "nonpayable",
      "type": "function"
    },
    {
      "inputs": [
        {
          "internalType": "uint256",
          "name": "index",
          "type": "uint256"
        },
        {
          "internalType": "string",
          "name": "newDescription",
          "type": "string"
        }
      ],
      "name": "setDescriptionInList",
      "outputs": [],
      "stateMutability": "nonpayable",
      "type": "function"
    },
    {
      "inputs": [
        {
          "internalType": "uint256",
          "name": "index",
          "type": "uint256"
        },
        {
          "internalType": "string",
          "name": "newImageUri",
          "type": "string"
        }
      ],
      "name": "setImageUriInList",
      "outputs": [],
      "stateMutability": "nonpayable",
      "type": "function"
    },
    {
      "inputs": [
        {
          "internalType": "uint256",
          "name": "index",
          "type": "uint256"
        }
      ],
      "name": "setInStockTimestamp",
      "outputs": [],
      "stateMutability": "nonpayable",
      "type": "function"
    },
    {
      "inputs": [
        {
          "internalType": "address",
          "name": "manager",
          "type": "address"
        }
      ],
      "name": "setManager",
      "outputs": [],
      "stateMutability": "nonpayable",
      "type": "function"
    },
    {
      "inputs": [
        {
          "internalType": "address",
          "name": "producer",
          "type": "address"
        }
      ],
      "name": "setProducer",
      "outputs": [],
      "stateMutability": "nonpayable",
      "type": "function"
    },
    {
      "inputs": [
        {
          "internalType": "uint256",
          "name": "index",
          "type": "uint256"
        }
      ],
      "name": "setProductionTimestamp",
      "outputs": [],
      "stateMutability": "nonpayable",
      "type": "function"
    },
    {
      "inputs": [
        {
          "internalType": "uint256",
          "name": "index",
          "type": "uint256"
        }
      ],
      "name": "setSoldTimestamp",
      "outputs": [],
      "stateMutability": "nonpayable",
      "type": "function"
    },
    {
      "inputs": [
        {
          "internalType": "address",
          "name": "suplier",
          "type": "address"
        }
      ],
      "name": "setSuplier",
      "outputs": [],
      "stateMutability": "nonpayable",
      "type": "function"
    },
    {
      "inputs": [
        {
          "internalType": "uint256",
          "name": "index",
          "type": "uint256"
        },
        {
          "internalType": "string",
          "name": "newTitle",
          "type": "string"
        }
      ],
      "name": "setTitleInList",
      "outputs": [],
      "stateMutability": "nonpayable",
      "type": "function"
    },
    {
      "inputs": [
        {
          "internalType": "uint256",
          "name": "tokenIndex",
          "type": "uint256"
        },
        {
          "internalType": "uint256",
          "name": "descriptionId",
          "type": "uint256"
        }
      ],
      "name": "setTokenDescription",
      "outputs": [],
      "stateMutability": "nonpayable",
      "type": "function"
    },
    {
      "inputs": [
        {
          "internalType": "uint256",
          "name": "tokenIndex",
          "type": "uint256"
        },
        {
          "internalType": "uint256",
          "name": "imageUriId",
          "type": "uint256"
        },
        {
          "internalType": "uint256",
          "name": "titleId",
          "type": "uint256"
        },
        {
          "internalType": "uint256",
          "name": "descriptionId",
          "type": "uint256"
        }
      ],
      "name": "setTokenDetails",
      "outputs": [],
      "stateMutability": "nonpayable",
      "type": "function"
    },
    {
      "inputs": [
        {
          "internalType": "uint256",
          "name": "tokenIndex",
          "type": "uint256"
        },
        {
          "internalType": "uint256",
          "name": "imageUriId",
          "type": "uint256"
        }
      ],
      "name": "setTokenImageUri",
      "outputs": [],
      "stateMutability": "nonpayable",
      "type": "function"
    },
    {
      "inputs": [
        {
          "internalType": "uint256",
          "name": "tokenIndex",
          "type": "uint256"
        },
        {
          "internalType": "uint256",
          "name": "titleId",
          "type": "uint256"
        }
      ],
      "name": "setTokenTitle",
      "outputs": [],
      "stateMutability": "nonpayable",
      "type": "function"
    },
    {
      "inputs": [
        {
          "internalType": "bytes4",
          "name": "interfaceId",
          "type": "bytes4"
        }
      ],
      "name": "supportsInterface",
      "outputs": [
        {
          "internalType": "bool",
          "name": "",
          "type": "bool"
        }
      ],
      "stateMutability": "view",
      "type": "function"
    },
    {
      "inputs": [],
      "name": "symbol",
      "outputs": [
        {
          "internalType": "string",
          "name": "",
          "type": "string"
        }
      ],
      "stateMutability": "view",
      "type": "function"
    },
    {
      "inputs": [
        {
          "internalType": "uint256",
          "name": "tokenId",
          "type": "uint256"
        }
      ],
      "name": "tokenURI",
      "outputs": [
        {
          "internalType": "string",
          "name": "",
          "type": "string"
        }
      ],
      "stateMutability": "view",
      "type": "function"
    },
    {
      "inputs": [
        {
          "internalType": "address",
          "name": "from",
          "type": "address"
        },
        {
          "internalType": "address",
          "name": "to",
          "type": "address"
        },
        {
          "internalType": "uint256",
          "name": "tokenId",
          "type": "uint256"
        }
      ],
      "name": "transferFrom",
      "outputs": [],
      "stateMutability": "nonpayable",
      "type": "function"
    },
    {
      "inputs": [
        {
          "internalType": "address",
          "name": "newOwner",
          "type": "address"
        }
      ],
      "name": "transferOwnership",
      "outputs": [],
      "stateMutability": "nonpayable",
      "type": "function"
    }
  ],
  "bytecode": "0x6101206040526000600c553480156200001757600080fd5b5060405162005d6038038062005d6083398181016040528101906200003d919062000395565b6040518060400160405280600f81526020017f51522d4e465420547261636b696e6700000000000000000000000000000000008152506040518060400160405280600581526020017f514e465454000000000000000000000000000000000000000000000000000000815250858073ffffffffffffffffffffffffffffffffffffffff1660808173ffffffffffffffffffffffffffffffffffffffff1681525050508160009081620000f0919062000681565b50806001908162000102919062000681565b50505062000125620001196200019c60201b60201c565b620001a460201b60201c565b8373ffffffffffffffffffffffffffffffffffffffff1660a08173ffffffffffffffffffffffffffffffffffffffff16815250508160c081815250508267ffffffffffffffff1660e08167ffffffffffffffff16815250508063ffffffff166101008163ffffffff16815250505050505062000768565b600033905090565b6000600760009054906101000a900473ffffffffffffffffffffffffffffffffffffffff16905081600760006101000a81548173ffffffffffffffffffffffffffffffffffffffff021916908373ffffffffffffffffffffffffffffffffffffffff1602179055508173ffffffffffffffffffffffffffffffffffffffff168173ffffffffffffffffffffffffffffffffffffffff167f8be0079c531659141344cd1fd0a4f28419497f9722a3daafe3b4186f6b6457e060405160405180910390a35050565b600080fd5b600073ffffffffffffffffffffffffffffffffffffffff82169050919050565b60006200029c826200026f565b9050919050565b620002ae816200028f565b8114620002ba57600080fd5b50565b600081519050620002ce81620002a3565b92915050565b600067ffffffffffffffff82169050919050565b620002f381620002d4565b8114620002ff57600080fd5b50565b6000815190506200031381620002e8565b92915050565b6000819050919050565b6200032e8162000319565b81146200033a57600080fd5b50565b6000815190506200034e8162000323565b92915050565b600063ffffffff82169050919050565b6200036f8162000354565b81146200037b57600080fd5b50565b6000815190506200038f8162000364565b92915050565b60008060008060808587031215620003b257620003b16200026a565b5b6000620003c287828801620002bd565b9450506020620003d58782880162000302565b9350506040620003e8878288016200033d565b9250506060620003fb878288016200037e565b91505092959194509250565b600081519050919050565b7f4e487b7100000000000000000000000000000000000000000000000000000000600052604160045260246000fd5b7f4e487b7100000000000000000000000000000000000000000000000000000000600052602260045260246000fd5b600060028204905060018216806200048957607f821691505b6020821081036200049f576200049e62000441565b5b50919050565b60008190508160005260206000209050919050565b60006020601f8301049050919050565b600082821b905092915050565b600060088302620005097fffffffffffffffffffffffffffffffffffffffffffffffffffffffffffffffff82620004ca565b620005158683620004ca565b95508019841693508086168417925050509392505050565b6000819050919050565b6000819050919050565b6000620005626200055c62000556846200052d565b62000537565b6200052d565b9050919050565b6000819050919050565b6200057e8362000541565b620005966200058d8262000569565b848454620004d7565b825550505050565b600090565b620005ad6200059e565b620005ba81848462000573565b505050565b5b81811015620005e257620005d6600082620005a3565b600181019050620005c0565b5050565b601f8211156200063157620005fb81620004a5565b6200060684620004ba565b8101602085101562000616578190505b6200062e6200062585620004ba565b830182620005bf565b50505b505050565b600082821c905092915050565b6000620006566000198460080262000636565b1980831691505092915050565b600062000671838362000643565b9150826002028217905092915050565b6200068c8262000407565b67ffffffffffffffff811115620006a857620006a762000412565b5b620006b4825462000470565b620006c1828285620005e6565b600060209050601f831160018114620006f95760008415620006e4578287015190505b620006f0858262000663565b86555062000760565b601f1984166200070986620004a5565b60005b8281101562000733578489015182556001820191506020850194506020810190506200070c565b868310156200075357848901516200074f601f89168262000643565b8355505b6001600288020188555050505b505050505050565b60805160a05160c05160e05161010051615597620007c960003960006115830152600081816115600152611a1501526000818161153f01526121750152600081816115030152612040015260008181610d0c0152610d6001526155976000f3fe608060405234801561001057600080fd5b50600436106102a05760003560e01c80638acf932c11610167578063c1e03728116100ce578063de9a4cca11610087578063de9a4cca1461083d578063df74dde21461086d578063e985e9c514610889578063f2fde38b146108b9578063f3ae2415146108d5578063f552102214610905576102a0565b8063c1e037281461076d578063c3d02e0c1461079d578063c5b57eef146107b9578063c87b56dd146107d5578063c9252e8814610805578063d0ebdbe714610821576102a0565b8063a22cb46511610120578063a22cb465146106c1578063ad490d9c146106dd578063b47620a1146106f9578063b88d4fde14610717578063bff04aa514610733578063c19dd76b1461074f576102a0565b80638acf932c146105ff5780638da5cb5b1461061d578063929a79b11461063b57806395d89b411461066b5780639a509e29146106895780639dd52d48146106a5576102a0565b8063412e5f491161020b578063634fc9ff116101c4578063634fc9ff1461053f5780636352211e1461055b5780636e02007d1461058b57806370a08231146105a9578063715018a6146105d957806374744443146105e3576102a0565b8063412e5f491461044757806342842e0e1461047757806346a2733e146104935780634925ec55146104c35780635418800a146104f357806355a1d83f1461050f576102a0565b80631fe543e31161025d5780631fe543e31461038b57806323b872dd146103a7578063272c0e7d146103c357806327872038146103df5780632b38bafc1461040f578063388c6e721461042b576102a0565b806301595a06146102a557806301ffc9a7146102d557806306fdde0314610305578063081812fc14610323578063095ea7b3146103535780630fb2a39b1461036f575b600080fd5b6102bf60048036038101906102ba9190613ad6565b610935565b6040516102cc9190613b12565b60405180910390f35b6102ef60048036038101906102ea9190613b85565b610952565b6040516102fc9190613bcd565b60405180910390f35b61030d610a34565b60405161031a9190613c78565b60405180910390f35b61033d60048036038101906103389190613ad6565b610ac6565b60405161034a9190613cdb565b60405180910390f35b61036d60048036038101906103689190613d22565b610b0c565b005b61038960048036038101906103849190613d62565b610c23565b005b6103a560048036038101906103a09190613ed7565b610d0a565b005b6103c160048036038101906103bc9190613f33565b610dca565b005b6103dd60048036038101906103d89190613f86565b610e2a565b005b6103f960048036038101906103f49190613d62565b610f0d565b6040516104069190613bcd565b60405180910390f35b61042960048036038101906104249190613d62565b610f63565b005b61044560048036038101906104409190613d62565b61104a565b005b610461600480360381019061045c9190613ad6565b611131565b60405161046e9190613c78565b60405180910390f35b610491600480360381019061048c9190613f33565b6111d6565b005b6104ad60048036038101906104a89190613ad6565b6111f6565b6040516104ba9190613cdb565b60405180910390f35b6104dd60048036038101906104d89190613ad6565b611229565b6040516104ea9190613c78565b60405180910390f35b61050d60048036038101906105089190614048565b6112ce565b005b610529600480360381019061052491906140e4565b61145f565b6040516105369190613b12565b60405180910390f35b61055960048036038101906105549190613d62565b611697565b005b61057560048036038101906105709190613ad6565b6116fa565b6040516105829190613cdb565b60405180910390f35b6105936117ab565b6040516105a09190613b12565b60405180910390f35b6105c360048036038101906105be9190613d62565b6117b5565b6040516105d09190613b12565b60405180910390f35b6105e161186c565b005b6105fd60048036038101906105f89190614048565b611880565b005b610607611a11565b6040516106149190614134565b60405180910390f35b610625611a39565b6040516106329190613cdb565b60405180910390f35b61065560048036038101906106509190613ad6565b611a63565b6040516106629190613c78565b60405180910390f35b610673611b08565b6040516106809190613c78565b60405180910390f35b6106a3600480360381019061069e9190613ad6565b611b9a565b005b6106bf60048036038101906106ba9190613ad6565b611d4c565b005b6106db60048036038101906106d6919061417b565b611f7b565b005b6106f760048036038101906106f291906141bb565b611f91565b005b61070161203c565b60405161070e9190613cdb565b60405180910390f35b610731600480360381019061072c91906142b0565b612064565b005b61074d600480360381019061074891906141bb565b6120c6565b005b610757612171565b604051610764919061434c565b60405180910390f35b61078760048036038101906107829190613ad6565b612199565b604051610794919061448f565b60405180910390f35b6107b760048036038101906107b291906141bb565b612248565b005b6107d360048036038101906107ce9190614048565b6122f3565b005b6107ef60048036038101906107ea9190613ad6565b612484565b6040516107fc9190613c78565b60405180910390f35b61081f600480360381019061081a9190613ad6565b612596565b005b61083b60048036038101906108369190613d62565b612748565b005b61085760048036038101906108529190613ad6565b6127ab565b604051610864919061448f565b60405180910390f35b61088760048036038101906108829190613d62565b61286d565b005b6108a3600480360381019061089e91906144ab565b612954565b6040516108b09190613bcd565b60405180910390f35b6108d360048036038101906108ce9190613d62565b6129e8565b005b6108ef60048036038101906108ea9190613d62565b612a6b565b6040516108fc9190613bcd565b60405180910390f35b61091f600480360381019061091a9190613d62565b612ac1565b60405161092c9190613bcd565b60405180910390f35b600060106000838152602001908152602001600020549050919050565b60007f80ac58cd000000000000000000000000000000000000000000000000000000007bffffffffffffffffffffffffffffffffffffffffffffffffffffffff1916827bffffffffffffffffffffffffffffffffffffffffffffffffffffffff19161480610a1d57507f5b5e139f000000000000000000000000000000000000000000000000000000007bffffffffffffffffffffffffffffffffffffffffffffffffffffffff1916827bffffffffffffffffffffffffffffffffffffffffffffffffffffffff1916145b80610a2d5750610a2c82612b17565b5b9050919050565b606060008054610a439061451a565b80601f0160208091040260200160405190810160405280929190818152602001828054610a6f9061451a565b8015610abc5780601f10610a9157610100808354040283529160200191610abc565b820191906000526020600020905b815481529060010190602001808311610a9f57829003601f168201915b5050505050905090565b6000610ad182612b81565b6004600083815260200190815260200160002060009054906101000a900473ffffffffffffffffffffffffffffffffffffffff169050919050565b6000610b17826116fa565b90508073ffffffffffffffffffffffffffffffffffffffff168373ffffffffffffffffffffffffffffffffffffffff1603610b87576040517f08c379a0000000000000000000000000000000000000000000000000000000008152600401610b7e906145bd565b60405180910390fd5b8073ffffffffffffffffffffffffffffffffffffffff16610ba6612bcc565b73ffffffffffffffffffffffffffffffffffffffff161480610bd55750610bd481610bcf612bcc565b612954565b5b610c14576040517f08c379a0000000000000000000000000000000000000000000000000000000008152600401610c0b9061464f565b60405180910390fd5b610c1e8383612bd4565b505050565b600860003373ffffffffffffffffffffffffffffffffffffffff1673ffffffffffffffffffffffffffffffffffffffff16815260200190815260200160002060009054906101000a900460ff16610caf576040517f08c379a0000000000000000000000000000000000000000000000000000000008152600401610ca6906146bb565b60405180910390fd5b6000600960008373ffffffffffffffffffffffffffffffffffffffff1673ffffffffffffffffffffffffffffffffffffffff16815260200190815260200160002060006101000a81548160ff02191690831515021790555050565b7f000000000000000000000000000000000000000000000000000000000000000073ffffffffffffffffffffffffffffffffffffffff163373ffffffffffffffffffffffffffffffffffffffff1614610dbc57337f00000000000000000000000000000000000000000000000000000000000000006040517f1cf993f4000000000000000000000000000000000000000000000000000000008152600401610db39291906146db565b60405180910390fd5b610dc68282612c8d565b5050565b610ddb610dd5612bcc565b82612ddd565b610e1a576040517f08c379a0000000000000000000000000000000000000000000000000000000008152600401610e1190614776565b60405180910390fd5b610e25838383612e72565b505050565b600960003373ffffffffffffffffffffffffffffffffffffffff1673ffffffffffffffffffffffffffffffffffffffff16815260200190815260200160002060009054906101000a900460ff16610eb6576040517f08c379a0000000000000000000000000000000000000000000000000000000008152600401610ead906147e2565b60405180910390fd5b82601160008681526020019081526020016000206004018190555081601160008681526020019081526020016000206002018190555080601160008681526020019081526020016000206003018190555050505050565b6000600a60008373ffffffffffffffffffffffffffffffffffffffff1673ffffffffffffffffffffffffffffffffffffffff16815260200190815260200160002060009054906101000a900460ff169050919050565b600860003373ffffffffffffffffffffffffffffffffffffffff1673ffffffffffffffffffffffffffffffffffffffff16815260200190815260200160002060009054906101000a900460ff16610fef576040517f08c379a0000000000000000000000000000000000000000000000000000000008152600401610fe6906146bb565b60405180910390fd5b6001600960008373ffffffffffffffffffffffffffffffffffffffff1673ffffffffffffffffffffffffffffffffffffffff16815260200190815260200160002060006101000a81548160ff02191690831515021790555050565b600860003373ffffffffffffffffffffffffffffffffffffffff1673ffffffffffffffffffffffffffffffffffffffff16815260200190815260200160002060009054906101000a900460ff166110d6576040517f08c379a00000000000000000000000000000000000000000000000000000000081526004016110cd906146bb565b60405180910390fd5b6001600a60008373ffffffffffffffffffffffffffffffffffffffff1673ffffffffffffffffffffffffffffffffffffffff16815260200190815260200160002060006101000a81548160ff02191690831515021790555050565b6060600d600083815260200190815260200160002080546111519061451a565b80601f016020809104026020016040519081016040528092919081815260200182805461117d9061451a565b80156111ca5780601f1061119f576101008083540402835291602001916111ca565b820191906000526020600020905b8154815290600101906020018083116111ad57829003601f168201915b50505050509050919050565b6111f183838360405180602001604052806000815250612064565b505050565b600b6020528060005260406000206000915054906101000a900473ffffffffffffffffffffffffffffffffffffffff1681565b6060600f600083815260200190815260200160002080546112499061451a565b80601f01602080910402602001604051908101604052809291908181526020018280546112759061451a565b80156112c25780601f10611297576101008083540402835291602001916112c2565b820191906000526020600020905b8154815290600101906020018083116112a557829003601f168201915b50505050509050919050565b600860003373ffffffffffffffffffffffffffffffffffffffff1673ffffffffffffffffffffffffffffffffffffffff16815260200190815260200160002060009054906101000a900460ff1661135a576040517f08c379a0000000000000000000000000000000000000000000000000000000008152600401611351906146bb565b60405180910390fd5b6000600d6000858152602001908152602001600020805461137a9061451a565b80601f01602080910402602001604051908101604052809291908181526020018280546113a69061451a565b80156113f35780601f106113c8576101008083540402835291602001916113f3565b820191906000526020600020905b8154815290600101906020018083116113d657829003601f168201915b505050505090508282600d6000878152602001908152602001600020918261141c9291906149b9565b50837f853a29e3e0d0f8388b4da4df2cba06c5c716aab27ae3cd098566dc819d770d5a82858560405161145193929190614ab6565b60405180910390a250505050565b6000600960003373ffffffffffffffffffffffffffffffffffffffff1673ffffffffffffffffffffffffffffffffffffffff16815260200190815260200160002060009054906101000a900460ff166114ed576040517f08c379a00000000000000000000000000000000000000000000000000000000081526004016114e4906147e2565b60405180910390fd5b6101f48263ffffffff161061150157600080fd5b7f000000000000000000000000000000000000000000000000000000000000000073ffffffffffffffffffffffffffffffffffffffff16635d3b1d307f00000000000000000000000000000000000000000000000000000000000000007f000000000000000000000000000000000000000000000000000000000000000060017f0000000000000000000000000000000000000000000000000000000000000000876040518663ffffffff1660e01b81526004016115c3959493929190614b1b565b6020604051808303816000875af11580156115e2573d6000803e3d6000fd5b505050506040513d601f19601f820116820180604052508101906116069190614b83565b905033600b600083815260200190815260200160002060006101000a81548173ffffffffffffffffffffffffffffffffffffffff021916908373ffffffffffffffffffffffffffffffffffffffff160217905550807f2ec8bf91a86a494648ee53d6156cc3502602fdee260fb63741e6ae8e04a43ab83360405161168a9190613cdb565b60405180910390a2919050565b61169f6130d8565b6000600860008373ffffffffffffffffffffffffffffffffffffffff1673ffffffffffffffffffffffffffffffffffffffff16815260200190815260200160002060006101000a81548160ff02191690831515021790555050565b6000806002600084815260200190815260200160002060009054906101000a900473ffffffffffffffffffffffffffffffffffffffff169050600073ffffffffffffffffffffffffffffffffffffffff168173ffffffffffffffffffffffffffffffffffffffff16036117a2576040517f08c379a000000000000000000000000000000000000000000000000000000000815260040161179990614bfc565b60405180910390fd5b80915050919050565b6000600c54905090565b60008073ffffffffffffffffffffffffffffffffffffffff168273ffffffffffffffffffffffffffffffffffffffff1603611825576040517f08c379a000000000000000000000000000000000000000000000000000000000815260040161181c90614c8e565b60405180910390fd5b600360008373ffffffffffffffffffffffffffffffffffffffff1673ffffffffffffffffffffffffffffffffffffffff168152602001908152602001600020549050919050565b6118746130d8565b61187e6000613156565b565b600860003373ffffffffffffffffffffffffffffffffffffffff1673ffffffffffffffffffffffffffffffffffffffff16815260200190815260200160002060009054906101000a900460ff1661190c576040517f08c379a0000000000000000000000000000000000000000000000000000000008152600401611903906146bb565b60405180910390fd5b6000600e6000858152602001908152602001600020805461192c9061451a565b80601f01602080910402602001604051908101604052809291908181526020018280546119589061451a565b80156119a55780601f1061197a576101008083540402835291602001916119a5565b820191906000526020600020905b81548152906001019060200180831161198857829003601f168201915b505050505090508282600f600087815260200190815260200160002091826119ce9291906149b9565b50837f8f6b1123a186bc4a3c61a624183431d5df2804ae84ff2200b153f2f7ca32437e828585604051611a0393929190614ab6565b60405180910390a250505050565b60007f0000000000000000000000000000000000000000000000000000000000000000905090565b6000600760009054906101000a900473ffffffffffffffffffffffffffffffffffffffff16905090565b6060600e60008381526020019081526020016000208054611a839061451a565b80601f0160208091040260200160405190810160405280929190818152602001828054611aaf9061451a565b8015611afc5780601f10611ad157610100808354040283529160200191611afc565b820191906000526020600020905b815481529060010190602001808311611adf57829003601f168201915b50505050509050919050565b606060018054611b179061451a565b80601f0160208091040260200160405190810160405280929190818152602001828054611b439061451a565b8015611b905780601f10611b6557610100808354040283529160200191611b90565b820191906000526020600020905b815481529060010190602001808311611b7357829003601f168201915b5050505050905090565b600960003373ffffffffffffffffffffffffffffffffffffffff1673ffffffffffffffffffffffffffffffffffffffff16815260200190815260200160002060009054906101000a900460ff16611c26576040517f08c379a0000000000000000000000000000000000000000000000000000000008152600401611c1d906147e2565b60405180910390fd5b60016004811115611c3a57611c39614367565b5b6011600083815260200190815260200160002060000160009054906101000a900460ff166004811115611c7057611c6f614367565b5b14611cb0576040517f08c379a0000000000000000000000000000000000000000000000000000000008152600401611ca790614cfa565b60405180910390fd5b60026011600083815260200190815260200160002060000160006101000a81548160ff02191690836004811115611cea57611ce9614367565b5b021790555060004290508060116000848152602001908152602001600020600501819055507fd47aba2edfa8d521c2f5240a7b378924a0d2724cd20ebfc970de181140a163118282604051611d40929190614d1a565b60405180910390a15050565b600a60003373ffffffffffffffffffffffffffffffffffffffff1673ffffffffffffffffffffffffffffffffffffffff16815260200190815260200160002060009054906101000a900460ff16611dd8576040517f08c379a0000000000000000000000000000000000000000000000000000000008152600401611dcf90614d8f565b60405180910390fd5b60006011600083815260200190815260200160002060000160009054906101000a900460ff16905060026004811115611e1457611e13614367565b5b816004811115611e2757611e26614367565b5b1480611e57575060036004811115611e4257611e41614367565b5b816004811115611e5557611e54614367565b5b145b611e96576040517f08c379a0000000000000000000000000000000000000000000000000000000008152600401611e8d90614dfb565b60405180910390fd5b600042905060026004811115611eaf57611eae614367565b5b826004811115611ec257611ec1614367565b5b03611ee3578060116000858152602001908152602001600020600601819055505b60046011600085815260200190815260200160002060000160006101000a81548160ff02191690836004811115611f1d57611f1c614367565b5b02179055508060116000858152602001908152602001600020600701819055507f5120429c88882edc469993b2f7c2d1f13287fd3ccf3ec20d28f3af207fd6b2818382604051611f6e929190614d1a565b60405180910390a1505050565b611f8d611f86612bcc565b838361321c565b5050565b600960003373ffffffffffffffffffffffffffffffffffffffff1673ffffffffffffffffffffffffffffffffffffffff16815260200190815260200160002060009054906101000a900460ff1661201d576040517f08c379a0000000000000000000000000000000000000000000000000000000008152600401612014906147e2565b60405180910390fd5b8060116000848152602001908152602001600020600201819055505050565b60007f0000000000000000000000000000000000000000000000000000000000000000905090565b61207561206f612bcc565b83612ddd565b6120b4576040517f08c379a00000000000000000000000000000000000000000000000000000000081526004016120ab90614776565b60405180910390fd5b6120c084848484613388565b50505050565b600960003373ffffffffffffffffffffffffffffffffffffffff1673ffffffffffffffffffffffffffffffffffffffff16815260200190815260200160002060009054906101000a900460ff16612152576040517f08c379a0000000000000000000000000000000000000000000000000000000008152600401612149906147e2565b60405180910390fd5b8060116000848152602001908152602001600020600301819055505050565b60007f0000000000000000000000000000000000000000000000000000000000000000905090565b6121a1613a35565b60116000838152602001908152602001600020604051806101000160405290816000820160009054906101000a900460ff1660048111156121e5576121e4614367565b5b60048111156121f7576121f6614367565b5b81526020016001820154815260200160028201548152602001600382015481526020016004820154815260200160058201548152602001600682015481526020016007820154815250509050919050565b600960003373ffffffffffffffffffffffffffffffffffffffff1673ffffffffffffffffffffffffffffffffffffffff16815260200190815260200160002060009054906101000a900460ff166122d4576040517f08c379a00000000000000000000000000000000000000000000000000000000081526004016122cb906147e2565b60405180910390fd5b8060116000848152602001908152602001600020600401819055505050565b600860003373ffffffffffffffffffffffffffffffffffffffff1673ffffffffffffffffffffffffffffffffffffffff16815260200190815260200160002060009054906101000a900460ff1661237f576040517f08c379a0000000000000000000000000000000000000000000000000000000008152600401612376906146bb565b60405180910390fd5b6000600e6000858152602001908152602001600020805461239f9061451a565b80601f01602080910402602001604051908101604052809291908181526020018280546123cb9061451a565b80156124185780601f106123ed57610100808354040283529160200191612418565b820191906000526020600020905b8154815290600101906020018083116123fb57829003601f168201915b505050505090508282600e600087815260200190815260200160002091826124419291906149b9565b50837f19413abde56fcc8f06e83ab34ea8c33b0a6138006d0c412f68dde0d021fafb9982858560405161247693929190614ab6565b60405180910390a250505050565b606061248f82612b81565b60006006600084815260200190815260200160002080546124af9061451a565b80601f01602080910402602001604051908101604052809291908181526020018280546124db9061451a565b80156125285780601f106124fd57610100808354040283529160200191612528565b820191906000526020600020905b81548152906001019060200180831161250b57829003601f168201915b5050505050905060006125396133e4565b9050600081510361254e578192505050612591565b60008251111561258357808260405160200161256b929190614e57565b60405160208183030381529060405292505050612591565b61258c846133fb565b925050505b919050565b600a60003373ffffffffffffffffffffffffffffffffffffffff1673ffffffffffffffffffffffffffffffffffffffff16815260200190815260200160002060009054906101000a900460ff16612622576040517f08c379a000000000000000000000000000000000000000000000000000000000815260040161261990614d8f565b60405180910390fd5b6002600481111561263657612635614367565b5b6011600083815260200190815260200160002060000160009054906101000a900460ff16600481111561266c5761266b614367565b5b146126ac576040517f08c379a00000000000000000000000000000000000000000000000000000000081526004016126a390614ec7565b60405180910390fd5b60036011600083815260200190815260200160002060000160006101000a81548160ff021916908360048111156126e6576126e5614367565b5b021790555060004290508060116000848152602001908152602001600020600601819055507fac552b90983dcc9691c113e2233aae0c8ea2b40be12c1eeebd92a972d51f793b828260405161273c929190614d1a565b60405180910390a15050565b6127506130d8565b6001600860008373ffffffffffffffffffffffffffffffffffffffff1673ffffffffffffffffffffffffffffffffffffffff16815260200190815260200160002060006101000a81548160ff02191690831515021790555050565b6127b3613a35565b6011600060106000858152602001908152602001600020548152602001908152602001600020604051806101000160405290816000820160009054906101000a900460ff16600481111561280a57612809614367565b5b600481111561281c5761281b614367565b5b81526020016001820154815260200160028201548152602001600382015481526020016004820154815260200160058201548152602001600682015481526020016007820154815250509050919050565b600860003373ffffffffffffffffffffffffffffffffffffffff1673ffffffffffffffffffffffffffffffffffffffff16815260200190815260200160002060009054906101000a900460ff166128f9576040517f08c379a00000000000000000000000000000000000000000000000000000000081526004016128f0906146bb565b60405180910390fd5b6000600a60008373ffffffffffffffffffffffffffffffffffffffff1673ffffffffffffffffffffffffffffffffffffffff16815260200190815260200160002060006101000a81548160ff02191690831515021790555050565b6000600560008473ffffffffffffffffffffffffffffffffffffffff1673ffffffffffffffffffffffffffffffffffffffff16815260200190815260200160002060008373ffffffffffffffffffffffffffffffffffffffff1673ffffffffffffffffffffffffffffffffffffffff16815260200190815260200160002060009054906101000a900460ff16905092915050565b6129f06130d8565b600073ffffffffffffffffffffffffffffffffffffffff168173ffffffffffffffffffffffffffffffffffffffff1603612a5f576040517f08c379a0000000000000000000000000000000000000000000000000000000008152600401612a5690614f59565b60405180910390fd5b612a6881613156565b50565b6000600860008373ffffffffffffffffffffffffffffffffffffffff1673ffffffffffffffffffffffffffffffffffffffff16815260200190815260200160002060009054906101000a900460ff169050919050565b6000600960008373ffffffffffffffffffffffffffffffffffffffff1673ffffffffffffffffffffffffffffffffffffffff16815260200190815260200160002060009054906101000a900460ff169050919050565b60007f01ffc9a7000000000000000000000000000000000000000000000000000000007bffffffffffffffffffffffffffffffffffffffffffffffffffffffff1916827bffffffffffffffffffffffffffffffffffffffffffffffffffffffff1916149050919050565b612b8a81613463565b612bc9576040517f08c379a0000000000000000000000000000000000000000000000000000000008152600401612bc090614bfc565b60405180910390fd5b50565b600033905090565b816004600083815260200190815260200160002060006101000a81548173ffffffffffffffffffffffffffffffffffffffff021916908373ffffffffffffffffffffffffffffffffffffffff160217905550808273ffffffffffffffffffffffffffffffffffffffff16612c47836116fa565b73ffffffffffffffffffffffffffffffffffffffff167f8c5be1e5ebec7d5bd14f71427d1e84f3dd0314c0f7b2291e5b200ac8c7c3b92560405160405180910390a45050565b6000600b600084815260200190815260200160002060009054906101000a900473ffffffffffffffffffffffffffffffffffffffff1690506000600c54905060005b8351811015612dcf57600182612ce59190614fa8565b91506000848281518110612cfc57612cfb614fdc565b5b60200260200101519050826010600083815260200190815260200160002081905550612d2884846134cf565b60016011600085815260200190815260200160002060000160006101000a81548160ff02191690836004811115612d6257612d61614367565b5b02179055508060116000858152602001908152602001600020600101819055507f5f7666687319b40936f33c188908d86aea154abd3f4127b4fa0a3f04f303c7da8382604051612db3929190614d1a565b60405180910390a1508080612dc79061500b565b915050612ccf565b5080600c8190555050505050565b600080612de9836116fa565b90508073ffffffffffffffffffffffffffffffffffffffff168473ffffffffffffffffffffffffffffffffffffffff161480612e2b5750612e2a8185612954565b5b80612e6957508373ffffffffffffffffffffffffffffffffffffffff16612e5184610ac6565b73ffffffffffffffffffffffffffffffffffffffff16145b91505092915050565b8273ffffffffffffffffffffffffffffffffffffffff16612e92826116fa565b73ffffffffffffffffffffffffffffffffffffffff1614612ee8576040517f08c379a0000000000000000000000000000000000000000000000000000000008152600401612edf906150c5565b60405180910390fd5b600073ffffffffffffffffffffffffffffffffffffffff168273ffffffffffffffffffffffffffffffffffffffff1603612f57576040517f08c379a0000000000000000000000000000000000000000000000000000000008152600401612f4e90615157565b60405180910390fd5b612f628383836134ed565b612f6d600082612bd4565b6001600360008573ffffffffffffffffffffffffffffffffffffffff1673ffffffffffffffffffffffffffffffffffffffff1681526020019081526020016000206000828254612fbd9190615177565b925050819055506001600360008473ffffffffffffffffffffffffffffffffffffffff1673ffffffffffffffffffffffffffffffffffffffff16815260200190815260200160002060008282546130149190614fa8565b92505081905550816002600083815260200190815260200160002060006101000a81548173ffffffffffffffffffffffffffffffffffffffff021916908373ffffffffffffffffffffffffffffffffffffffff160217905550808273ffffffffffffffffffffffffffffffffffffffff168473ffffffffffffffffffffffffffffffffffffffff167fddf252ad1be2c89b69c2b068fc378daa952ba7f163c4a11628f55a4df523b3ef60405160405180910390a46130d38383836134f2565b505050565b6130e0612bcc565b73ffffffffffffffffffffffffffffffffffffffff166130fe611a39565b73ffffffffffffffffffffffffffffffffffffffff1614613154576040517f08c379a000000000000000000000000000000000000000000000000000000000815260040161314b906151f7565b60405180910390fd5b565b6000600760009054906101000a900473ffffffffffffffffffffffffffffffffffffffff16905081600760006101000a81548173ffffffffffffffffffffffffffffffffffffffff021916908373ffffffffffffffffffffffffffffffffffffffff1602179055508173ffffffffffffffffffffffffffffffffffffffff168173ffffffffffffffffffffffffffffffffffffffff167f8be0079c531659141344cd1fd0a4f28419497f9722a3daafe3b4186f6b6457e060405160405180910390a35050565b8173ffffffffffffffffffffffffffffffffffffffff168373ffffffffffffffffffffffffffffffffffffffff160361328a576040517f08c379a000000000000000000000000000000000000000000000000000000000815260040161328190615263565b60405180910390fd5b80600560008573ffffffffffffffffffffffffffffffffffffffff1673ffffffffffffffffffffffffffffffffffffffff16815260200190815260200160002060008473ffffffffffffffffffffffffffffffffffffffff1673ffffffffffffffffffffffffffffffffffffffff16815260200190815260200160002060006101000a81548160ff0219169083151502179055508173ffffffffffffffffffffffffffffffffffffffff168373ffffffffffffffffffffffffffffffffffffffff167f17307eab39ab6107e8899845ad3d59bd9653f200f220920489ca2b5937696c318360405161337b9190613bcd565b60405180910390a3505050565b613393848484612e72565b61339f848484846134f7565b6133de576040517f08c379a00000000000000000000000000000000000000000000000000000000081526004016133d5906152f5565b60405180910390fd5b50505050565b606060405180602001604052806000815250905090565b606061340682612b81565b60006134106133e4565b90506000815111613430576040518060200160405280600081525061345b565b8061343a8461367e565b60405160200161344b929190614e57565b6040516020818303038152906040525b915050919050565b60008073ffffffffffffffffffffffffffffffffffffffff166002600084815260200190815260200160002060009054906101000a900473ffffffffffffffffffffffffffffffffffffffff1673ffffffffffffffffffffffffffffffffffffffff1614159050919050565b6134e98282604051806020016040528060008152506137de565b5050565b505050565b505050565b60006135188473ffffffffffffffffffffffffffffffffffffffff16613839565b15613671578373ffffffffffffffffffffffffffffffffffffffff1663150b7a02613541612bcc565b8786866040518563ffffffff1660e01b8152600401613563949392919061536a565b6020604051808303816000875af192505050801561359f57506040513d601f19601f8201168201806040525081019061359c91906153cb565b60015b613621573d80600081146135cf576040519150601f19603f3d011682016040523d82523d6000602084013e6135d4565b606091505b506000815103613619576040517f08c379a0000000000000000000000000000000000000000000000000000000008152600401613610906152f5565b60405180910390fd5b805181602001fd5b63150b7a0260e01b7bffffffffffffffffffffffffffffffffffffffffffffffffffffffff1916817bffffffffffffffffffffffffffffffffffffffffffffffffffffffff191614915050613676565b600190505b949350505050565b6060600082036136c5576040518060400160405280600181526020017f300000000000000000000000000000000000000000000000000000000000000081525090506137d9565b600082905060005b600082146136f75780806136e09061500b565b915050600a826136f09190615427565b91506136cd565b60008167ffffffffffffffff81111561371357613712613d94565b5b6040519080825280601f01601f1916602001820160405280156137455781602001600182028036833780820191505090505b5090505b600085146137d25760018261375e9190615177565b9150600a8561376d9190615458565b60306137799190614fa8565b60f81b81838151811061378f5761378e614fdc565b5b60200101907effffffffffffffffffffffffffffffffffffffffffffffffffffffffffffff1916908160001a905350600a856137cb9190615427565b9450613749565b8093505050505b919050565b6137e8838361385c565b6137f560008484846134f7565b613834576040517f08c379a000000000000000000000000000000000000000000000000000000000815260040161382b906152f5565b60405180910390fd5b505050565b6000808273ffffffffffffffffffffffffffffffffffffffff163b119050919050565b600073ffffffffffffffffffffffffffffffffffffffff168273ffffffffffffffffffffffffffffffffffffffff16036138cb576040517f08c379a00000000000000000000000000000000000000000000000000000000081526004016138c2906154d5565b60405180910390fd5b6138d481613463565b15613914576040517f08c379a000000000000000000000000000000000000000000000000000000000815260040161390b90615541565b60405180910390fd5b613920600083836134ed565b6001600360008473ffffffffffffffffffffffffffffffffffffffff1673ffffffffffffffffffffffffffffffffffffffff16815260200190815260200160002060008282546139709190614fa8565b92505081905550816002600083815260200190815260200160002060006101000a81548173ffffffffffffffffffffffffffffffffffffffff021916908373ffffffffffffffffffffffffffffffffffffffff160217905550808273ffffffffffffffffffffffffffffffffffffffff16600073ffffffffffffffffffffffffffffffffffffffff167fddf252ad1be2c89b69c2b068fc378daa952ba7f163c4a11628f55a4df523b3ef60405160405180910390a4613a31600083836134f2565b5050565b60405180610100016040528060006004811115613a5557613a54614367565b5b8152602001600081526020016000815260200160008152602001600081526020016000815260200160008152602001600081525090565b6000604051905090565b600080fd5b600080fd5b6000819050919050565b613ab381613aa0565b8114613abe57600080fd5b50565b600081359050613ad081613aaa565b92915050565b600060208284031215613aec57613aeb613a96565b5b6000613afa84828501613ac1565b91505092915050565b613b0c81613aa0565b82525050565b6000602082019050613b276000830184613b03565b92915050565b60007fffffffff0000000000000000000000000000000000000000000000000000000082169050919050565b613b6281613b2d565b8114613b6d57600080fd5b50565b600081359050613b7f81613b59565b92915050565b600060208284031215613b9b57613b9a613a96565b5b6000613ba984828501613b70565b91505092915050565b60008115159050919050565b613bc781613bb2565b82525050565b6000602082019050613be26000830184613bbe565b92915050565b600081519050919050565b600082825260208201905092915050565b60005b83811015613c22578082015181840152602081019050613c07565b60008484015250505050565b6000601f19601f8301169050919050565b6000613c4a82613be8565b613c548185613bf3565b9350613c64818560208601613c04565b613c6d81613c2e565b840191505092915050565b60006020820190508181036000830152613c928184613c3f565b905092915050565b600073ffffffffffffffffffffffffffffffffffffffff82169050919050565b6000613cc582613c9a565b9050919050565b613cd581613cba565b82525050565b6000602082019050613cf06000830184613ccc565b92915050565b613cff81613cba565b8114613d0a57600080fd5b50565b600081359050613d1c81613cf6565b92915050565b60008060408385031215613d3957613d38613a96565b5b6000613d4785828601613d0d565b9250506020613d5885828601613ac1565b9150509250929050565b600060208284031215613d7857613d77613a96565b5b6000613d8684828501613d0d565b91505092915050565b600080fd5b7f4e487b7100000000000000000000000000000000000000000000000000000000600052604160045260246000fd5b613dcc82613c2e565b810181811067ffffffffffffffff82111715613deb57613dea613d94565b5b80604052505050565b6000613dfe613a8c565b9050613e0a8282613dc3565b919050565b600067ffffffffffffffff821115613e2a57613e29613d94565b5b602082029050602081019050919050565b600080fd5b6000613e53613e4e84613e0f565b613df4565b90508083825260208201905060208402830185811115613e7657613e75613e3b565b5b835b81811015613e9f5780613e8b8882613ac1565b845260208401935050602081019050613e78565b5050509392505050565b600082601f830112613ebe57613ebd613d8f565b5b8135613ece848260208601613e40565b91505092915050565b60008060408385031215613eee57613eed613a96565b5b6000613efc85828601613ac1565b925050602083013567ffffffffffffffff811115613f1d57613f1c613a9b565b5b613f2985828601613ea9565b9150509250929050565b600080600060608486031215613f4c57613f4b613a96565b5b6000613f5a86828701613d0d565b9350506020613f6b86828701613d0d565b9250506040613f7c86828701613ac1565b9150509250925092565b60008060008060808587031215613fa057613f9f613a96565b5b6000613fae87828801613ac1565b9450506020613fbf87828801613ac1565b9350506040613fd087828801613ac1565b9250506060613fe187828801613ac1565b91505092959194509250565b600080fd5b60008083601f84011261400857614007613d8f565b5b8235905067ffffffffffffffff81111561402557614024613fed565b5b60208301915083600182028301111561404157614040613e3b565b5b9250929050565b60008060006040848603121561406157614060613a96565b5b600061406f86828701613ac1565b935050602084013567ffffffffffffffff8111156140905761408f613a9b565b5b61409c86828701613ff2565b92509250509250925092565b600063ffffffff82169050919050565b6140c1816140a8565b81146140cc57600080fd5b50565b6000813590506140de816140b8565b92915050565b6000602082840312156140fa576140f9613a96565b5b6000614108848285016140cf565b91505092915050565b600067ffffffffffffffff82169050919050565b61412e81614111565b82525050565b60006020820190506141496000830184614125565b92915050565b61415881613bb2565b811461416357600080fd5b50565b6000813590506141758161414f565b92915050565b6000806040838503121561419257614191613a96565b5b60006141a085828601613d0d565b92505060206141b185828601614166565b9150509250929050565b600080604083850312156141d2576141d1613a96565b5b60006141e085828601613ac1565b92505060206141f185828601613ac1565b9150509250929050565b600080fd5b600067ffffffffffffffff82111561421b5761421a613d94565b5b61422482613c2e565b9050602081019050919050565b82818337600083830152505050565b600061425361424e84614200565b613df4565b90508281526020810184848401111561426f5761426e6141fb565b5b61427a848285614231565b509392505050565b600082601f83011261429757614296613d8f565b5b81356142a7848260208601614240565b91505092915050565b600080600080608085870312156142ca576142c9613a96565b5b60006142d887828801613d0d565b94505060206142e987828801613d0d565b93505060406142fa87828801613ac1565b925050606085013567ffffffffffffffff81111561431b5761431a613a9b565b5b61432787828801614282565b91505092959194509250565b6000819050919050565b61434681614333565b82525050565b6000602082019050614361600083018461433d565b92915050565b7f4e487b7100000000000000000000000000000000000000000000000000000000600052602160045260246000fd5b600581106143a7576143a6614367565b5b50565b60008190506143b882614396565b919050565b60006143c8826143aa565b9050919050565b6143d8816143bd565b82525050565b6143e781613aa0565b82525050565b6101008201600082015161440460008501826143cf565b50602082015161441760208501826143de565b50604082015161442a60408501826143de565b50606082015161443d60608501826143de565b50608082015161445060808501826143de565b5060a082015161446360a08501826143de565b5060c082015161447660c08501826143de565b5060e082015161448960e08501826143de565b50505050565b6000610100820190506144a560008301846143ed565b92915050565b600080604083850312156144c2576144c1613a96565b5b60006144d085828601613d0d565b92505060206144e185828601613d0d565b9150509250929050565b7f4e487b7100000000000000000000000000000000000000000000000000000000600052602260045260246000fd5b6000600282049050600182168061453257607f821691505b602082108103614545576145446144eb565b5b50919050565b7f4552433732313a20617070726f76616c20746f2063757272656e74206f776e6560008201527f7200000000000000000000000000000000000000000000000000000000000000602082015250565b60006145a7602183613bf3565b91506145b28261454b565b604082019050919050565b600060208201905081810360008301526145d68161459a565b9050919050565b7f4552433732313a20617070726f76652063616c6c6572206973206e6f7420746f60008201527f6b656e206f776e6572206e6f7220617070726f76656420666f7220616c6c0000602082015250565b6000614639603e83613bf3565b9150614644826145dd565b604082019050919050565b600060208201905081810360008301526146688161462c565b9050919050565b7f43616c6c6572206973206e6f7420746865206d616e6167657200000000000000600082015250565b60006146a5601983613bf3565b91506146b08261466f565b602082019050919050565b600060208201905081810360008301526146d481614698565b9050919050565b60006040820190506146f06000830185613ccc565b6146fd6020830184613ccc565b9392505050565b7f4552433732313a2063616c6c6572206973206e6f7420746f6b656e206f776e6560008201527f72206e6f7220617070726f766564000000000000000000000000000000000000602082015250565b6000614760602e83613bf3565b915061476b82614704565b604082019050919050565b6000602082019050818103600083015261478f81614753565b9050919050565b7f43616c6c6572206973206e6f74207468652070726f6475636572000000000000600082015250565b60006147cc601a83613bf3565b91506147d782614796565b602082019050919050565b600060208201905081810360008301526147fb816147bf565b9050919050565b600082905092915050565b60008190508160005260206000209050919050565b60006020601f8301049050919050565b600082821b905092915050565b60006008830261486f7fffffffffffffffffffffffffffffffffffffffffffffffffffffffffffffffff82614832565b6148798683614832565b95508019841693508086168417925050509392505050565b6000819050919050565b60006148b66148b16148ac84613aa0565b614891565b613aa0565b9050919050565b6000819050919050565b6148d08361489b565b6148e46148dc826148bd565b84845461483f565b825550505050565b600090565b6148f96148ec565b6149048184846148c7565b505050565b5b818110156149285761491d6000826148f1565b60018101905061490a565b5050565b601f82111561496d5761493e8161480d565b61494784614822565b81016020851015614956578190505b61496a61496285614822565b830182614909565b50505b505050565b600082821c905092915050565b600061499060001984600802614972565b1980831691505092915050565b60006149a9838361497f565b9150826002028217905092915050565b6149c38383614802565b67ffffffffffffffff8111156149dc576149db613d94565b5b6149e6825461451a565b6149f182828561492c565b6000601f831160018114614a205760008415614a0e578287013590505b614a18858261499d565b865550614a80565b601f198416614a2e8661480d565b60005b82811015614a5657848901358255600182019150602085019450602081019050614a31565b86831015614a735784890135614a6f601f89168261497f565b8355505b6001600288020188555050505b50505050505050565b6000614a958385613bf3565b9350614aa2838584614231565b614aab83613c2e565b840190509392505050565b60006040820190508181036000830152614ad08186613c3f565b90508181036020830152614ae5818486614a89565b9050949350505050565b600061ffff82169050919050565b614b0681614aef565b82525050565b614b15816140a8565b82525050565b600060a082019050614b30600083018861433d565b614b3d6020830187614125565b614b4a6040830186614afd565b614b576060830185614b0c565b614b646080830184614b0c565b9695505050505050565b600081519050614b7d81613aaa565b92915050565b600060208284031215614b9957614b98613a96565b5b6000614ba784828501614b6e565b91505092915050565b7f4552433732313a20696e76616c696420746f6b656e2049440000000000000000600082015250565b6000614be6601883613bf3565b9150614bf182614bb0565b602082019050919050565b60006020820190508181036000830152614c1581614bd9565b9050919050565b7f4552433732313a2061646472657373207a65726f206973206e6f74206120766160008201527f6c6964206f776e65720000000000000000000000000000000000000000000000602082015250565b6000614c78602983613bf3565b9150614c8382614c1c565b604082019050919050565b60006020820190508181036000830152614ca781614c6b565b9050919050565b7f546f6b656e206e6f7420726561647920746f2070726f64756365000000000000600082015250565b6000614ce4601a83613bf3565b9150614cef82614cae565b602082019050919050565b60006020820190508181036000830152614d1381614cd7565b9050919050565b6000604082019050614d2f6000830185613b03565b614d3c6020830184613b03565b9392505050565b7f43616c6c6572206973206e6f7420746865207375706c69657200000000000000600082015250565b6000614d79601983613bf3565b9150614d8482614d43565b602082019050919050565b60006020820190508181036000830152614da881614d6c565b9050919050565b7f546f6b656e206e6f7420726561647920746f2073616c65000000000000000000600082015250565b6000614de5601783613bf3565b9150614df082614daf565b602082019050919050565b60006020820190508181036000830152614e1481614dd8565b9050919050565b600081905092915050565b6000614e3182613be8565b614e3b8185614e1b565b9350614e4b818560208601613c04565b80840191505092915050565b6000614e638285614e26565b9150614e6f8284614e26565b91508190509392505050565b7f546f6b656e206e6f7420726561647920746f206d6f766520696e2073746f636b600082015250565b6000614eb1602083613bf3565b9150614ebc82614e7b565b602082019050919050565b60006020820190508181036000830152614ee081614ea4565b9050919050565b7f4f776e61626c653a206e6577206f776e657220697320746865207a65726f206160008201527f6464726573730000000000000000000000000000000000000000000000000000602082015250565b6000614f43602683613bf3565b9150614f4e82614ee7565b604082019050919050565b60006020820190508181036000830152614f7281614f36565b9050919050565b7f4e487b7100000000000000000000000000000000000000000000000000000000600052601160045260246000fd5b6000614fb382613aa0565b9150614fbe83613aa0565b9250828201905080821115614fd657614fd5614f79565b5b92915050565b7f4e487b7100000000000000000000000000000000000000000000000000000000600052603260045260246000fd5b600061501682613aa0565b91507fffffffffffffffffffffffffffffffffffffffffffffffffffffffffffffffff820361504857615047614f79565b5b600182019050919050565b7f4552433732313a207472616e736665722066726f6d20696e636f72726563742060008201527f6f776e6572000000000000000000000000000000000000000000000000000000602082015250565b60006150af602583613bf3565b91506150ba82615053565b604082019050919050565b600060208201905081810360008301526150de816150a2565b9050919050565b7f4552433732313a207472616e7366657220746f20746865207a65726f2061646460008201527f7265737300000000000000000000000000000000000000000000000000000000602082015250565b6000615141602483613bf3565b915061514c826150e5565b604082019050919050565b6000602082019050818103600083015261517081615134565b9050919050565b600061518282613aa0565b915061518d83613aa0565b92508282039050818111156151a5576151a4614f79565b5b92915050565b7f4f776e61626c653a2063616c6c6572206973206e6f7420746865206f776e6572600082015250565b60006151e1602083613bf3565b91506151ec826151ab565b602082019050919050565b60006020820190508181036000830152615210816151d4565b9050919050565b7f4552433732313a20617070726f766520746f2063616c6c657200000000000000600082015250565b600061524d601983613bf3565b915061525882615217565b602082019050919050565b6000602082019050818103600083015261527c81615240565b9050919050565b7f4552433732313a207472616e7366657220746f206e6f6e20455243373231526560008201527f63656976657220696d706c656d656e7465720000000000000000000000000000602082015250565b60006152df603283613bf3565b91506152ea82615283565b604082019050919050565b6000602082019050818103600083015261530e816152d2565b9050919050565b600081519050919050565b600082825260208201905092915050565b600061533c82615315565b6153468185615320565b9350615356818560208601613c04565b61535f81613c2e565b840191505092915050565b600060808201905061537f6000830187613ccc565b61538c6020830186613ccc565b6153996040830185613b03565b81810360608301526153ab8184615331565b905095945050505050565b6000815190506153c581613b59565b92915050565b6000602082840312156153e1576153e0613a96565b5b60006153ef848285016153b6565b91505092915050565b7f4e487b7100000000000000000000000000000000000000000000000000000000600052601260045260246000fd5b600061543282613aa0565b915061543d83613aa0565b92508261544d5761544c6153f8565b5b828204905092915050565b600061546382613aa0565b915061546e83613aa0565b92508261547e5761547d6153f8565b5b828206905092915050565b7f4552433732313a206d696e7420746f20746865207a65726f2061646472657373600082015250565b60006154bf602083613bf3565b91506154ca82615489565b602082019050919050565b600060208201905081810360008301526154ee816154b2565b9050919050565b7f4552433732313a20746f6b656e20616c7265616479206d696e74656400000000600082015250565b600061552b601c83613bf3565b9150615536826154f5565b602082019050919050565b6000602082019050818103600083015261555a8161551e565b905091905056fea264697066735822122094fa430dcc07686543923b3fbd8403314725da741b47ce9b9e683f098bc3c8ff64736f6c63430008110033",
  "linkReferences": {},
  "deployedLinkReferences": {}
}