{
  "_format": "hh-sol-artifact-1",
  "contractName": "Package",
  "sourceName": "contracts/package.sol",
  "abi": [
    {
      "inputs": [
        {
          "internalType": "address",
          "name": "vrfCoordinator",
          "type": "address"
        },
        {
          "internalType": "uint64",
          "name": "subscriptionId",
          "type": "uint64"
        },
        {
          "internalType": "bytes32",
          "name": "gasLane",
          "type": "bytes32"
        },
        {
          "internalType": "uint32",
          "name": "callbackGasLimit",
          "type": "uint32"
        }
      ],
      "stateMutability": "nonpayable",
      "type": "constructor"
    },
    {
      "inputs": [
        {
          "internalType": "address",
          "name": "have",
          "type": "address"
        },
        {
          "internalType": "address",
          "name": "want",
          "type": "address"
        }
      ],
      "name": "OnlyCoordinatorCanFulfill",
      "type": "error"
    },
    {
      "anonymous": false,
      "inputs": [
        {
          "indexed": true,
          "internalType": "address",
          "name": "owner",
          "type": "address"
        },
        {
          "indexed": true,
          "internalType": "address",
          "name": "approved",
          "type": "address"
        },
        {
          "indexed": true,
          "internalType": "uint256",
          "name": "tokenId",
          "type": "uint256"
        }
      ],
      "name": "Approval",
      "type": "event"
    },
    {
      "anonymous": false,
      "inputs": [
        {
          "indexed": true,
          "internalType": "address",
          "name": "owner",
          "type": "address"
        },
        {
          "indexed": true,
          "internalType": "address",
          "name": "operator",
          "type": "address"
        },
        {
          "indexed": false,
          "internalType": "bool",
          "name": "approved",
          "type": "bool"
        }
      ],
      "name": "ApprovalForAll",
      "type": "event"
    },
    {
      "anonymous": false,
      "inputs": [
        {
          "indexed": true,
          "internalType": "uint256",
          "name": "id",
          "type": "uint256"
        },
        {
          "indexed": false,
          "internalType": "string",
          "name": "oldString",
          "type": "string"
        },
        {
          "indexed": false,
          "internalType": "string",
          "name": "newString",
          "type": "string"
        }
      ],
      "name": "DescriptionListEdited",
      "type": "event"
    },
    {
      "anonymous": false,
      "inputs": [
        {
          "indexed": true,
          "internalType": "uint256",
          "name": "id",
          "type": "uint256"
        },
        {
          "indexed": false,
          "internalType": "string",
          "name": "oldString",
          "type": "string"
        },
        {
          "indexed": false,
          "internalType": "string",
          "name": "newString",
          "type": "string"
        }
      ],
      "name": "ImageUriListEdited",
      "type": "event"
    },
    {
      "anonymous": false,
      "inputs": [
        {
          "indexed": true,
          "internalType": "address",
          "name": "previousOwner",
          "type": "address"
        },
        {
          "indexed": true,
          "internalType": "address",
          "name": "newOwner",
          "type": "address"
        }
      ],
      "name": "OwnershipTransferred",
      "type": "event"
    },
    {
      "anonymous": false,
      "inputs": [
        {
          "indexed": true,
          "internalType": "uint256",
          "name": "id",
          "type": "uint256"
        },
        {
          "indexed": false,
          "internalType": "string",
          "name": "oldString",
          "type": "string"
        },
        {
          "indexed": false,
          "internalType": "string",
          "name": "newString",
          "type": "string"
        }
      ],
      "name": "TitleListEdited",
      "type": "event"
    },
    {
      "anonymous": false,
      "inputs": [
        {
          "indexed": false,
          "internalType": "uint256",
          "name": "tokenId",
          "type": "uint256"
        },
        {
          "indexed": false,
          "internalType": "uint256",
          "name": "time",
          "type": "uint256"
        }
      ],
      "name": "TokenInStock",
      "type": "event"
    },
    {
      "anonymous": false,
      "inputs": [
        {
          "indexed": false,
          "internalType": "uint256",
          "name": "requestId",
          "type": "uint256"
        },
        {
          "indexed": false,
          "internalType": "uint256",
          "name": "randomNumber",
          "type": "uint256"
        }
      ],
      "name": "TokenMinted",
      "type": "event"
    },
    {
      "anonymous": false,
      "inputs": [
        {
          "indexed": false,
          "internalType": "uint256",
          "name": "tokenId",
          "type": "uint256"
        },
        {
          "indexed": false,
          "internalType": "uint256",
          "name": "time",
          "type": "uint256"
        }
      ],
      "name": "TokenPoduced",
      "type": "event"
    },
    {
      "anonymous": false,
      "inputs": [
        {
          "indexed": true,
          "internalType": "uint256",
          "name": "requestId",
          "type": "uint256"
        },
        {
          "indexed": false,
          "internalType": "address",
          "name": "requester",
          "type": "address"
        }
      ],
      "name": "TokenRequested",
      "type": "event"
    },
    {
      "anonymous": false,
      "inputs": [
        {
          "indexed": false,
          "internalType": "uint256",
          "name": "tokenId",
          "type": "uint256"
        },
        {
          "indexed": false,
          "internalType": "uint256",
          "name": "time",
          "type": "uint256"
        }
      ],
      "name": "TokenSold",
      "type": "event"
    },
    {
      "anonymous": false,
      "inputs": [
        {
          "indexed": true,
          "internalType": "address",
          "name": "from",
          "type": "address"
        },
        {
          "indexed": true,
          "internalType": "address",
          "name": "to",
          "type": "address"
        },
        {
          "indexed": true,
          "internalType": "uint256",
          "name": "tokenId",
          "type": "uint256"
        }
      ],
      "name": "Transfer",
      "type": "event"
    },
    {
      "inputs": [
        {
          "internalType": "address",
          "name": "to",
          "type": "address"
        },
        {
          "internalType": "uint256",
          "name": "tokenId",
          "type": "uint256"
        }
      ],
      "name": "approve",
      "outputs": [],
      "stateMutability": "nonpayable",
      "type": "function"
    },
    {
      "inputs": [
        {
          "internalType": "address",
          "name": "owner",
          "type": "address"
        }
      ],
      "name": "balanceOf",
      "outputs": [
        {
          "internalType": "uint256",
          "name": "",
          "type": "uint256"
        }
      ],
      "stateMutability": "view",
      "type": "function"
    },
    {
      "inputs": [
        {
          "internalType": "uint256",
          "name": "tokenId",
          "type": "uint256"
        }
      ],
      "name": "getApproved",
      "outputs": [
        {
          "internalType": "address",
          "name": "",
          "type": "address"
        }
      ],
      "stateMutability": "view",
      "type": "function"
    },
    {
      "inputs": [],
      "name": "getGasLane",
      "outputs": [
        {
          "internalType": "bytes32",
          "name": "",
          "type": "bytes32"
        }
      ],
      "stateMutability": "view",
      "type": "function"
    },
    {
      "inputs": [],
      "name": "getTokenCounter",
      "outputs": [
        {
          "internalType": "uint256",
          "name": "",
          "type": "uint256"
        }
      ],
      "stateMutability": "view",
      "type": "function"
    },
    {
      "inputs": [
        {
          "internalType": "uint256",
          "name": "index",
          "type": "uint256"
        }
      ],
      "name": "getTokenDetails",
      "outputs": [
        {
          "components": [
            {
              "internalType": "enum Package.TokenState",
              "name": "state",
              "type": "uint8"
            },
            {
              "internalType": "uint256",
              "name": "uniqueId",
              "type": "uint256"
            },
            {
              "internalType": "uint256",
              "name": "titleId",
              "type": "uint256"
            },
            {
              "internalType": "uint256",
              "name": "descriptionId",
              "type": "uint256"
            },
            {
              "internalType": "uint256",
              "name": "imageUriId",
              "type": "uint256"
            },
            {
              "internalType": "uint256",
              "name": "producedTime",
              "type": "uint256"
            },
            {
              "internalType": "uint256",
              "name": "inStockTime",
              "type": "uint256"
            },
            {
              "internalType": "uint256",
              "name": "soldTime",
              "type": "uint256"
            }
          ],
          "internalType": "struct Package.TokenDetails",
          "name": "",
          "type": "tuple"
        }
      ],
      "stateMutability": "view",
      "type": "function"
    },
    {
      "inputs": [
        {
          "internalType": "uint256",
          "name": "id",
          "type": "uint256"
        }
      ],
      "name": "getTokenNumberByUniqueId",
      "outputs": [
        {
          "internalType": "uint256",
          "name": "",
          "type": "uint256"
        }
      ],
      "stateMutability": "view",
      "type": "function"
    },
    {
      "inputs": [
        {
          "internalType": "uint256",
          "name": "index",
          "type": "uint256"
        }
      ],
      "name": "getTokenURI",
      "outputs": [
        {
          "internalType": "string",
          "name": "",
          "type": "string"
        }
      ],
      "stateMutability": "view",
      "type": "function"
    },
    {
      "inputs": [],
      "name": "getVrfCoordinatorAddress",
      "outputs": [
        {
          "internalType": "address",
          "name": "",
          "type": "address"
        }
      ],
      "stateMutability": "view",
      "type": "function"
    },
    {
      "inputs": [],
      "name": "getVrfCoordinatorSubId",
      "outputs": [
        {
          "internalType": "uint64",
          "name": "",
          "type": "uint64"
        }
      ],
      "stateMutability": "view",
      "type": "function"
    },
    {
      "inputs": [
        {
          "internalType": "address",
          "name": "owner",
          "type": "address"
        },
        {
          "internalType": "address",
          "name": "operator",
          "type": "address"
        }
      ],
      "name": "isApprovedForAll",
      "outputs": [
        {
          "internalType": "bool",
          "name": "",
          "type": "bool"
        }
      ],
      "stateMutability": "view",
      "type": "function"
    },
    {
      "inputs": [
        {
          "internalType": "address",
          "name": "manager",
          "type": "address"
        }
      ],
      "name": "isManager",
      "outputs": [
        {
          "internalType": "bool",
          "name": "",
          "type": "bool"
        }
      ],
      "stateMutability": "view",
      "type": "function"
    },
    {
      "inputs": [
        {
          "internalType": "address",
          "name": "producer",
          "type": "address"
        }
      ],
      "name": "isProducer",
      "outputs": [
        {
          "internalType": "bool",
          "name": "",
          "type": "bool"
        }
      ],
      "stateMutability": "view",
      "type": "function"
    },
    {
      "inputs": [
        {
          "internalType": "address",
          "name": "suplier",
          "type": "address"
        }
      ],
      "name": "isSuplier",
      "outputs": [
        {
          "internalType": "bool",
          "name": "",
          "type": "bool"
        }
      ],
      "stateMutability": "view",
      "type": "function"
    },
    {
      "inputs": [
        {
          "internalType": "uint32",
          "name": "countOfNft",
          "type": "uint32"
        }
      ],
      "name": "mintNft",
      "outputs": [
        {
          "internalType": "uint256",
          "name": "requestId",
          "type": "uint256"
        }
      ],
      "stateMutability": "nonpayable",
      "type": "function"
    },
    {
      "inputs": [],
      "name": "name",
      "outputs": [
        {
          "internalType": "string",
          "name": "",
          "type": "string"
        }
      ],
      "stateMutability": "view",
      "type": "function"
    },
    {
      "inputs": [],
      "name": "owner",
      "outputs": [
        {
          "internalType": "address",
          "name": "",
          "type": "address"
        }
      ],
      "stateMutability": "view",
      "type": "function"
    },
    {
      "inputs": [
        {
          "internalType": "uint256",
          "name": "tokenId",
          "type": "uint256"
        }
      ],
      "name": "ownerOf",
      "outputs": [
        {
          "internalType": "address",
          "name": "",
          "type": "address"
        }
      ],
      "stateMutability": "view",
      "type": "function"
    },
    {
      "inputs": [
        {
          "internalType": "uint256",
          "name": "requestId",
          "type": "uint256"
        },
        {
          "internalType": "uint256[]",
          "name": "randomWords",
          "type": "uint256[]"
        }
      ],
      "name": "rawFulfillRandomWords",
      "outputs": [],
      "stateMutability": "nonpayable",
      "type": "function"
    },
    {
      "inputs": [],
      "name": "renounceOwnership",
      "outputs": [],
      "stateMutability": "nonpayable",
      "type": "function"
    },
    {
      "inputs": [
        {
          "internalType": "address",
          "name": "manager",
          "type": "address"
        }
      ],
      "name": "resetManager",
      "outputs": [],
      "stateMutability": "nonpayable",
      "type": "function"
    },
    {
      "inputs": [
        {
          "internalType": "address",
          "name": "producer",
          "type": "address"
        }
      ],
      "name": "resetProducer",
      "outputs": [],
      "stateMutability": "nonpayable",
      "type": "function"
    },
    {
      "inputs": [
        {
          "internalType": "address",
          "name": "suplier",
          "type": "address"
        }
      ],
      "name": "resetSuplier",
      "outputs": [],
      "stateMutability": "nonpayable",
      "type": "function"
    },
    {
      "inputs": [
        {
          "internalType": "uint256",
          "name": "",
          "type": "uint256"
        }
      ],
      "name": "s_descriptions",
      "outputs": [
        {
          "internalType": "string",
          "name": "",
          "type": "string"
        }
      ],
      "stateMutability": "view",
      "type": "function"
    },
    {
      "inputs": [
        {
          "internalType": "uint256",
          "name": "",
          "type": "uint256"
        }
      ],
      "name": "s_imageUris",
      "outputs": [
        {
          "internalType": "string",
          "name": "",
          "type": "string"
        }
      ],
      "stateMutability": "view",
      "type": "function"
    },
    {
      "inputs": [
        {
          "internalType": "uint256",
          "name": "",
          "type": "uint256"
        }
      ],
      "name": "s_requestIdSender",
      "outputs": [
        {
          "internalType": "address",
          "name": "",
          "type": "address"
        }
      ],
      "stateMutability": "view",
      "type": "function"
    },
    {
      "inputs": [
        {
          "internalType": "uint256",
          "name": "",
          "type": "uint256"
        }
      ],
      "name": "s_titles",
      "outputs": [
        {
          "internalType": "string",
          "name": "",
          "type": "string"
        }
      ],
      "stateMutability": "view",
      "type": "function"
    },
    {
      "inputs": [],
      "name": "s_tokenCounter",
      "outputs": [
        {
          "internalType": "uint256",
          "name": "",
          "type": "uint256"
        }
      ],
      "stateMutability": "view",
      "type": "function"
    },
    {
      "inputs": [
        {
          "internalType": "uint256",
          "name": "",
          "type": "uint256"
        }
      ],
      "name": "s_tokenDetails",
      "outputs": [
        {
          "internalType": "enum Package.TokenState",
          "name": "state",
          "type": "uint8"
        },
        {
          "internalType": "uint256",
          "name": "uniqueId",
          "type": "uint256"
        },
        {
          "internalType": "uint256",
          "name": "titleId",
          "type": "uint256"
        },
        {
          "internalType": "uint256",
          "name": "descriptionId",
          "type": "uint256"
        },
        {
          "internalType": "uint256",
          "name": "imageUriId",
          "type": "uint256"
        },
        {
          "internalType": "uint256",
          "name": "producedTime",
          "type": "uint256"
        },
        {
          "internalType": "uint256",
          "name": "inStockTime",
          "type": "uint256"
        },
        {
          "internalType": "uint256",
          "name": "soldTime",
          "type": "uint256"
        }
      ],
      "stateMutability": "view",
      "type": "function"
    },
    {
      "inputs": [
        {
          "internalType": "uint256",
          "name": "",
          "type": "uint256"
        }
      ],
      "name": "s_tokenUniqueIds",
      "outputs": [
        {
          "internalType": "uint256",
          "name": "",
          "type": "uint256"
        }
      ],
      "stateMutability": "view",
      "type": "function"
    },
    {
      "inputs": [
        {
          "internalType": "address",
          "name": "from",
          "type": "address"
        },
        {
          "internalType": "address",
          "name": "to",
          "type": "address"
        },
        {
          "internalType": "uint256",
          "name": "tokenId",
          "type": "uint256"
        }
      ],
      "name": "safeTransferFrom",
      "outputs": [],
      "stateMutability": "nonpayable",
      "type": "function"
    },
    {
      "inputs": [
        {
          "internalType": "address",
          "name": "from",
          "type": "address"
        },
        {
          "internalType": "address",
          "name": "to",
          "type": "address"
        },
        {
          "internalType": "uint256",
          "name": "tokenId",
          "type": "uint256"
        },
        {
          "internalType": "bytes",
          "name": "data",
          "type": "bytes"
        }
      ],
      "name": "safeTransferFrom",
      "outputs": [],
      "stateMutability": "nonpayable",
      "type": "function"
    },
    {
      "inputs": [
        {
          "internalType": "address",
          "name": "operator",
          "type": "address"
        },
        {
          "internalType": "bool",
          "name": "approved",
          "type": "bool"
        }
      ],
      "name": "setApprovalForAll",
      "outputs": [],
      "stateMutability": "nonpayable",
      "type": "function"
    },
    {
      "inputs": [
        {
          "internalType": "uint256",
          "name": "index",
          "type": "uint256"
        },
        {
          "internalType": "string",
          "name": "newDescription",
          "type": "string"
        }
      ],
      "name": "setDescriptionInList",
      "outputs": [],
      "stateMutability": "nonpayable",
      "type": "function"
    },
    {
      "inputs": [
        {
          "internalType": "uint256",
          "name": "index",
          "type": "uint256"
        },
        {
          "internalType": "string",
          "name": "newImageUri",
          "type": "string"
        }
      ],
      "name": "setImageUriInList",
      "outputs": [],
      "stateMutability": "nonpayable",
      "type": "function"
    },
    {
      "inputs": [
        {
          "internalType": "uint256",
          "name": "index",
          "type": "uint256"
        }
      ],
      "name": "setInStockTimestamp",
      "outputs": [],
      "stateMutability": "nonpayable",
      "type": "function"
    },
    {
      "inputs": [
        {
          "internalType": "address",
          "name": "manager",
          "type": "address"
        }
      ],
      "name": "setManager",
      "outputs": [],
      "stateMutability": "nonpayable",
      "type": "function"
    },
    {
      "inputs": [
        {
          "internalType": "address",
          "name": "producer",
          "type": "address"
        }
      ],
      "name": "setProducer",
      "outputs": [],
      "stateMutability": "nonpayable",
      "type": "function"
    },
    {
      "inputs": [
        {
          "internalType": "uint256",
          "name": "index",
          "type": "uint256"
        }
      ],
      "name": "setProductionTimestamp",
      "outputs": [],
      "stateMutability": "nonpayable",
      "type": "function"
    },
    {
      "inputs": [
        {
          "internalType": "uint256",
          "name": "index",
          "type": "uint256"
        }
      ],
      "name": "setSoldTimestamp",
      "outputs": [],
      "stateMutability": "nonpayable",
      "type": "function"
    },
    {
      "inputs": [
        {
          "internalType": "address",
          "name": "suplier",
          "type": "address"
        }
      ],
      "name": "setSuplier",
      "outputs": [],
      "stateMutability": "nonpayable",
      "type": "function"
    },
    {
      "inputs": [
        {
          "internalType": "uint256",
          "name": "index",
          "type": "uint256"
        },
        {
          "internalType": "string",
          "name": "newTitle",
          "type": "string"
        }
      ],
      "name": "setTitleInList",
      "outputs": [],
      "stateMutability": "nonpayable",
      "type": "function"
    },
    {
      "inputs": [
        {
          "internalType": "bytes4",
          "name": "interfaceId",
          "type": "bytes4"
        }
      ],
      "name": "supportsInterface",
      "outputs": [
        {
          "internalType": "bool",
          "name": "",
          "type": "bool"
        }
      ],
      "stateMutability": "view",
      "type": "function"
    },
    {
      "inputs": [],
      "name": "symbol",
      "outputs": [
        {
          "internalType": "string",
          "name": "",
          "type": "string"
        }
      ],
      "stateMutability": "view",
      "type": "function"
    },
    {
      "inputs": [
        {
          "internalType": "uint256",
          "name": "tokenId",
          "type": "uint256"
        }
      ],
      "name": "tokenURI",
      "outputs": [
        {
          "internalType": "string",
          "name": "",
          "type": "string"
        }
      ],
      "stateMutability": "view",
      "type": "function"
    },
    {
      "inputs": [
        {
          "internalType": "address",
          "name": "from",
          "type": "address"
        },
        {
          "internalType": "address",
          "name": "to",
          "type": "address"
        },
        {
          "internalType": "uint256",
          "name": "tokenId",
          "type": "uint256"
        }
      ],
      "name": "transferFrom",
      "outputs": [],
      "stateMutability": "nonpayable",
      "type": "function"
    },
    {
      "inputs": [
        {
          "internalType": "address",
          "name": "newOwner",
          "type": "address"
        }
      ],
      "name": "transferOwnership",
      "outputs": [],
      "stateMutability": "nonpayable",
      "type": "function"
    }
  ],
  "bytecode": "0x6101206040523480156200001257600080fd5b5060405162005ac938038062005ac9833981810160405281019062000038919062000390565b6040518060400160405280600f81526020017f51522d4e465420547261636b696e6700000000000000000000000000000000008152506040518060400160405280600581526020017f514e465454000000000000000000000000000000000000000000000000000000815250858073ffffffffffffffffffffffffffffffffffffffff1660808173ffffffffffffffffffffffffffffffffffffffff1681525050508160009081620000eb91906200067c565b508060019081620000fd91906200067c565b50505062000120620001146200019760201b60201c565b6200019f60201b60201c565b8373ffffffffffffffffffffffffffffffffffffffff1660a08173ffffffffffffffffffffffffffffffffffffffff16815250508160c081815250508267ffffffffffffffff1660e08167ffffffffffffffff16815250508063ffffffff166101008163ffffffff16815250505050505062000763565b600033905090565b6000600760009054906101000a900473ffffffffffffffffffffffffffffffffffffffff16905081600760006101000a81548173ffffffffffffffffffffffffffffffffffffffff021916908373ffffffffffffffffffffffffffffffffffffffff1602179055508173ffffffffffffffffffffffffffffffffffffffff168173ffffffffffffffffffffffffffffffffffffffff167f8be0079c531659141344cd1fd0a4f28419497f9722a3daafe3b4186f6b6457e060405160405180910390a35050565b600080fd5b600073ffffffffffffffffffffffffffffffffffffffff82169050919050565b600062000297826200026a565b9050919050565b620002a9816200028a565b8114620002b557600080fd5b50565b600081519050620002c9816200029e565b92915050565b600067ffffffffffffffff82169050919050565b620002ee81620002cf565b8114620002fa57600080fd5b50565b6000815190506200030e81620002e3565b92915050565b6000819050919050565b620003298162000314565b81146200033557600080fd5b50565b60008151905062000349816200031e565b92915050565b600063ffffffff82169050919050565b6200036a816200034f565b81146200037657600080fd5b50565b6000815190506200038a816200035f565b92915050565b60008060008060808587031215620003ad57620003ac62000265565b5b6000620003bd87828801620002b8565b9450506020620003d087828801620002fd565b9350506040620003e38782880162000338565b9250506060620003f68782880162000379565b91505092959194509250565b600081519050919050565b7f4e487b7100000000000000000000000000000000000000000000000000000000600052604160045260246000fd5b7f4e487b7100000000000000000000000000000000000000000000000000000000600052602260045260246000fd5b600060028204905060018216806200048457607f821691505b6020821081036200049a57620004996200043c565b5b50919050565b60008190508160005260206000209050919050565b60006020601f8301049050919050565b600082821b905092915050565b600060088302620005047fffffffffffffffffffffffffffffffffffffffffffffffffffffffffffffffff82620004c5565b620005108683620004c5565b95508019841693508086168417925050509392505050565b6000819050919050565b6000819050919050565b60006200055d62000557620005518462000528565b62000532565b62000528565b9050919050565b6000819050919050565b62000579836200053c565b62000591620005888262000564565b848454620004d2565b825550505050565b600090565b620005a862000599565b620005b58184846200056e565b505050565b5b81811015620005dd57620005d16000826200059e565b600181019050620005bb565b5050565b601f8211156200062c57620005f681620004a0565b6200060184620004b5565b8101602085101562000611578190505b620006296200062085620004b5565b830182620005ba565b50505b505050565b600082821c905092915050565b6000620006516000198460080262000631565b1980831691505092915050565b60006200066c83836200063e565b9150826002028217905092915050565b620006878262000402565b67ffffffffffffffff811115620006a357620006a26200040d565b5b620006af82546200046b565b620006bc828285620005e1565b600060209050601f831160018114620006f45760008415620006df578287015190505b620006eb85826200065e565b8655506200075b565b601f1984166200070486620004a0565b60005b828110156200072e5784890151825560018201915060208501945060208101905062000707565b868310156200074e57848901516200074a601f8916826200063e565b8355505b6001600288020188555050505b505050505050565b60805160a05160c05160e05161010051615305620007c4600039600061142701526000818161140401526119710152600081816113e30152611ed60152600081816113a70152611e4c015260008181610d1c0152610d7001526153056000f3fe608060405234801561001057600080fd5b50600436106102955760003560e01c8063715018a611610167578063c5b57eef116100ce578063df74dde211610087578063df74dde214610847578063e985e9c514610863578063f0a2630b14610893578063f2fde38b146108c3578063f3ae2415146108df578063f55210221461090f57610295565b8063c5b57eef1461075c578063c7876a1014610778578063c87b56dd146107af578063c9252e88146107df578063cadc50a4146107fb578063d0ebdbe71461082b57610295565b80639dd52d48116101205780639dd52d481461069c578063a22cb465146106b8578063b47620a1146106d4578063b88d4fde146106f2578063c19dd76b1461070e578063c1e037281461072c57610295565b8063715018a614610600578063747444431461060a5780638acf932c146106265780638da5cb5b1461064457806395d89b41146106625780639a509e291461068057610295565b8063388c6e721161020b578063634fc9ff116101c4578063634fc9ff146105065780636352211e146105225780636680ba7d146105525780636e02007d146105825780636ee175b7146105a057806370a08231146105d057610295565b8063388c6e72146104225780633bb3a24d1461043e57806342842e0e1461046e57806346a2733e1461048a5780635418800a146104ba57806355a1d83f146104d657610295565b80630b21a83b1161025d5780630b21a83b146103645780630fb2a39b146103825780631fe543e31461039e57806323b872dd146103ba57806327872038146103d65780632b38bafc1461040657610295565b806301595a061461029a57806301ffc9a7146102ca57806306fdde03146102fa578063081812fc14610318578063095ea7b314610348575b600080fd5b6102b460048036038101906102af919061385e565b61093f565b6040516102c1919061389a565b60405180910390f35b6102e460048036038101906102df919061390d565b61095c565b6040516102f19190613955565b60405180910390f35b610302610a3e565b60405161030f9190613a00565b60405180910390f35b610332600480360381019061032d919061385e565b610ad0565b60405161033f9190613a63565b60405180910390f35b610362600480360381019061035d9190613aaa565b610b16565b005b61036c610c2d565b604051610379919061389a565b60405180910390f35b61039c60048036038101906103979190613aea565b610c33565b005b6103b860048036038101906103b39190613c5f565b610d1a565b005b6103d460048036038101906103cf9190613cbb565b610dda565b005b6103f060048036038101906103eb9190613aea565b610e3a565b6040516103fd9190613955565b60405180910390f35b610420600480360381019061041b9190613aea565b610e90565b005b61043c60048036038101906104379190613aea565b610f77565b005b6104586004803603810190610453919061385e565b61105e565b6040516104659190613a00565b60405180910390f35b61048860048036038101906104839190613cbb565b61111f565b005b6104a4600480360381019061049f919061385e565b61113f565b6040516104b19190613a63565b60405180910390f35b6104d460048036038101906104cf9190613d69565b611172565b005b6104f060048036038101906104eb9190613e05565b611303565b6040516104fd919061389a565b60405180910390f35b610520600480360381019061051b9190613aea565b61153b565b005b61053c6004803603810190610537919061385e565b61159e565b6040516105499190613a63565b60405180910390f35b61056c6004803603810190610567919061385e565b61164f565b6040516105799190613a00565b60405180910390f35b61058a6116ef565b604051610597919061389a565b60405180910390f35b6105ba60048036038101906105b5919061385e565b6116f9565b6040516105c7919061389a565b60405180910390f35b6105ea60048036038101906105e59190613aea565b611711565b6040516105f7919061389a565b60405180910390f35b6106086117c8565b005b610624600480360381019061061f9190613d69565b6117dc565b005b61062e61196d565b60405161063b9190613e55565b60405180910390f35b61064c611995565b6040516106599190613a63565b60405180910390f35b61066a6119bf565b6040516106779190613a00565b60405180910390f35b61069a6004803603810190610695919061385e565b611a51565b005b6106b660048036038101906106b1919061385e565b611c03565b005b6106d260048036038101906106cd9190613e9c565b611e32565b005b6106dc611e48565b6040516106e99190613a63565b60405180910390f35b61070c60048036038101906107079190613f91565b611e70565b005b610716611ed2565b604051610723919061402d565b60405180910390f35b6107466004803603810190610741919061385e565b611efa565b6040516107539190614170565b60405180910390f35b61077660048036038101906107719190613d69565b611fa9565b005b610792600480360381019061078d919061385e565b61213a565b6040516107a698979695949392919061419b565b60405180910390f35b6107c960048036038101906107c4919061385e565b61218f565b6040516107d69190613a00565b60405180910390f35b6107f960048036038101906107f4919061385e565b6122a1565b005b6108156004803603810190610810919061385e565b612453565b6040516108229190613a00565b60405180910390f35b61084560048036038101906108409190613aea565b6124f3565b005b610861600480360381019061085c9190613aea565b612556565b005b61087d60048036038101906108789190614219565b61263d565b60405161088a9190613955565b60405180910390f35b6108ad60048036038101906108a8919061385e565b6126d1565b6040516108ba9190613a00565b60405180910390f35b6108dd60048036038101906108d89190613aea565b612771565b005b6108f960048036038101906108f49190613aea565b6127f4565b6040516109069190613955565b60405180910390f35b61092960048036038101906109249190613aea565b61284a565b6040516109369190613955565b60405180910390f35b600060106000838152602001908152602001600020549050919050565b60007f80ac58cd000000000000000000000000000000000000000000000000000000007bffffffffffffffffffffffffffffffffffffffffffffffffffffffff1916827bffffffffffffffffffffffffffffffffffffffffffffffffffffffff19161480610a2757507f5b5e139f000000000000000000000000000000000000000000000000000000007bffffffffffffffffffffffffffffffffffffffffffffffffffffffff1916827bffffffffffffffffffffffffffffffffffffffffffffffffffffffff1916145b80610a375750610a36826128a0565b5b9050919050565b606060008054610a4d90614288565b80601f0160208091040260200160405190810160405280929190818152602001828054610a7990614288565b8015610ac65780601f10610a9b57610100808354040283529160200191610ac6565b820191906000526020600020905b815481529060010190602001808311610aa957829003601f168201915b5050505050905090565b6000610adb8261290a565b6004600083815260200190815260200160002060009054906101000a900473ffffffffffffffffffffffffffffffffffffffff169050919050565b6000610b218261159e565b90508073ffffffffffffffffffffffffffffffffffffffff168373ffffffffffffffffffffffffffffffffffffffff1603610b91576040517f08c379a0000000000000000000000000000000000000000000000000000000008152600401610b889061432b565b60405180910390fd5b8073ffffffffffffffffffffffffffffffffffffffff16610bb0612955565b73ffffffffffffffffffffffffffffffffffffffff161480610bdf5750610bde81610bd9612955565b61263d565b5b610c1e576040517f08c379a0000000000000000000000000000000000000000000000000000000008152600401610c15906143bd565b60405180910390fd5b610c28838361295d565b505050565b600c5481565b600860003373ffffffffffffffffffffffffffffffffffffffff1673ffffffffffffffffffffffffffffffffffffffff16815260200190815260200160002060009054906101000a900460ff16610cbf576040517f08c379a0000000000000000000000000000000000000000000000000000000008152600401610cb690614429565b60405180910390fd5b6000600960008373ffffffffffffffffffffffffffffffffffffffff1673ffffffffffffffffffffffffffffffffffffffff16815260200190815260200160002060006101000a81548160ff02191690831515021790555050565b7f000000000000000000000000000000000000000000000000000000000000000073ffffffffffffffffffffffffffffffffffffffff163373ffffffffffffffffffffffffffffffffffffffff1614610dcc57337f00000000000000000000000000000000000000000000000000000000000000006040517f1cf993f4000000000000000000000000000000000000000000000000000000008152600401610dc3929190614449565b60405180910390fd5b610dd68282612a16565b5050565b610deb610de5612955565b82612b65565b610e2a576040517f08c379a0000000000000000000000000000000000000000000000000000000008152600401610e21906144e4565b60405180910390fd5b610e35838383612bfa565b505050565b6000600a60008373ffffffffffffffffffffffffffffffffffffffff1673ffffffffffffffffffffffffffffffffffffffff16815260200190815260200160002060009054906101000a900460ff169050919050565b600860003373ffffffffffffffffffffffffffffffffffffffff1673ffffffffffffffffffffffffffffffffffffffff16815260200190815260200160002060009054906101000a900460ff16610f1c576040517f08c379a0000000000000000000000000000000000000000000000000000000008152600401610f1390614429565b60405180910390fd5b6001600960008373ffffffffffffffffffffffffffffffffffffffff1673ffffffffffffffffffffffffffffffffffffffff16815260200190815260200160002060006101000a81548160ff02191690831515021790555050565b600860003373ffffffffffffffffffffffffffffffffffffffff1673ffffffffffffffffffffffffffffffffffffffff16815260200190815260200160002060009054906101000a900460ff16611003576040517f08c379a0000000000000000000000000000000000000000000000000000000008152600401610ffa90614429565b60405180910390fd5b6001600a60008373ffffffffffffffffffffffffffffffffffffffff1673ffffffffffffffffffffffffffffffffffffffff16815260200190815260200160002060006101000a81548160ff02191690831515021790555050565b6060600060116000848152602001908152602001600020600401549050600d6000828152602001908152602001600020805461109990614288565b80601f01602080910402602001604051908101604052809291908181526020018280546110c590614288565b80156111125780601f106110e757610100808354040283529160200191611112565b820191906000526020600020905b8154815290600101906020018083116110f557829003601f168201915b5050505050915050919050565b61113a83838360405180602001604052806000815250611e70565b505050565b600b6020528060005260406000206000915054906101000a900473ffffffffffffffffffffffffffffffffffffffff1681565b600860003373ffffffffffffffffffffffffffffffffffffffff1673ffffffffffffffffffffffffffffffffffffffff16815260200190815260200160002060009054906101000a900460ff166111fe576040517f08c379a00000000000000000000000000000000000000000000000000000000081526004016111f590614429565b60405180910390fd5b6000600d6000858152602001908152602001600020805461121e90614288565b80601f016020809104026020016040519081016040528092919081815260200182805461124a90614288565b80156112975780601f1061126c57610100808354040283529160200191611297565b820191906000526020600020905b81548152906001019060200180831161127a57829003601f168201915b505050505090508282600d600087815260200190815260200160002091826112c09291906146bb565b50837f853a29e3e0d0f8388b4da4df2cba06c5c716aab27ae3cd098566dc819d770d5a8285856040516112f5939291906147b8565b60405180910390a250505050565b6000600960003373ffffffffffffffffffffffffffffffffffffffff1673ffffffffffffffffffffffffffffffffffffffff16815260200190815260200160002060009054906101000a900460ff16611391576040517f08c379a00000000000000000000000000000000000000000000000000000000081526004016113889061483d565b60405180910390fd5b6101f48263ffffffff16106113a557600080fd5b7f000000000000000000000000000000000000000000000000000000000000000073ffffffffffffffffffffffffffffffffffffffff16635d3b1d307f00000000000000000000000000000000000000000000000000000000000000007f000000000000000000000000000000000000000000000000000000000000000060017f0000000000000000000000000000000000000000000000000000000000000000876040518663ffffffff1660e01b8152600401611467959493929190614889565b6020604051808303816000875af1158015611486573d6000803e3d6000fd5b505050506040513d601f19601f820116820180604052508101906114aa91906148f1565b905033600b600083815260200190815260200160002060006101000a81548173ffffffffffffffffffffffffffffffffffffffff021916908373ffffffffffffffffffffffffffffffffffffffff160217905550807f2ec8bf91a86a494648ee53d6156cc3502602fdee260fb63741e6ae8e04a43ab83360405161152e9190613a63565b60405180910390a2919050565b611543612e60565b6000600860008373ffffffffffffffffffffffffffffffffffffffff1673ffffffffffffffffffffffffffffffffffffffff16815260200190815260200160002060006101000a81548160ff02191690831515021790555050565b6000806002600084815260200190815260200160002060009054906101000a900473ffffffffffffffffffffffffffffffffffffffff169050600073ffffffffffffffffffffffffffffffffffffffff168173ffffffffffffffffffffffffffffffffffffffff1603611646576040517f08c379a000000000000000000000000000000000000000000000000000000000815260040161163d9061496a565b60405180910390fd5b80915050919050565b600f602052806000526040600020600091509050805461166e90614288565b80601f016020809104026020016040519081016040528092919081815260200182805461169a90614288565b80156116e75780601f106116bc576101008083540402835291602001916116e7565b820191906000526020600020905b8154815290600101906020018083116116ca57829003601f168201915b505050505081565b6000600c54905090565b60106020528060005260406000206000915090505481565b60008073ffffffffffffffffffffffffffffffffffffffff168273ffffffffffffffffffffffffffffffffffffffff1603611781576040517f08c379a0000000000000000000000000000000000000000000000000000000008152600401611778906149fc565b60405180910390fd5b600360008373ffffffffffffffffffffffffffffffffffffffff1673ffffffffffffffffffffffffffffffffffffffff168152602001908152602001600020549050919050565b6117d0612e60565b6117da6000612ede565b565b600860003373ffffffffffffffffffffffffffffffffffffffff1673ffffffffffffffffffffffffffffffffffffffff16815260200190815260200160002060009054906101000a900460ff16611868576040517f08c379a000000000000000000000000000000000000000000000000000000000815260040161185f90614429565b60405180910390fd5b6000600e6000858152602001908152602001600020805461188890614288565b80601f01602080910402602001604051908101604052809291908181526020018280546118b490614288565b80156119015780601f106118d657610100808354040283529160200191611901565b820191906000526020600020905b8154815290600101906020018083116118e457829003601f168201915b505050505090508282600f6000878152602001908152602001600020918261192a9291906146bb565b50837f8f6b1123a186bc4a3c61a624183431d5df2804ae84ff2200b153f2f7ca32437e82858560405161195f939291906147b8565b60405180910390a250505050565b60007f0000000000000000000000000000000000000000000000000000000000000000905090565b6000600760009054906101000a900473ffffffffffffffffffffffffffffffffffffffff16905090565b6060600180546119ce90614288565b80601f01602080910402602001604051908101604052809291908181526020018280546119fa90614288565b8015611a475780601f10611a1c57610100808354040283529160200191611a47565b820191906000526020600020905b815481529060010190602001808311611a2a57829003601f168201915b5050505050905090565b600960003373ffffffffffffffffffffffffffffffffffffffff1673ffffffffffffffffffffffffffffffffffffffff16815260200190815260200160002060009054906101000a900460ff16611add576040517f08c379a0000000000000000000000000000000000000000000000000000000008152600401611ad49061483d565b60405180910390fd5b60016004811115611af157611af0614048565b5b6011600083815260200190815260200160002060000160009054906101000a900460ff166004811115611b2757611b26614048565b5b14611b67576040517f08c379a0000000000000000000000000000000000000000000000000000000008152600401611b5e90614a68565b60405180910390fd5b60026011600083815260200190815260200160002060000160006101000a81548160ff02191690836004811115611ba157611ba0614048565b5b021790555060004290508060116000848152602001908152602001600020600501819055507fd47aba2edfa8d521c2f5240a7b378924a0d2724cd20ebfc970de181140a163118282604051611bf7929190614a88565b60405180910390a15050565b600a60003373ffffffffffffffffffffffffffffffffffffffff1673ffffffffffffffffffffffffffffffffffffffff16815260200190815260200160002060009054906101000a900460ff16611c8f576040517f08c379a0000000000000000000000000000000000000000000000000000000008152600401611c8690614afd565b60405180910390fd5b60006011600083815260200190815260200160002060000160009054906101000a900460ff16905060026004811115611ccb57611cca614048565b5b816004811115611cde57611cdd614048565b5b1480611d0e575060036004811115611cf957611cf8614048565b5b816004811115611d0c57611d0b614048565b5b145b611d4d576040517f08c379a0000000000000000000000000000000000000000000000000000000008152600401611d4490614b69565b60405180910390fd5b600042905060026004811115611d6657611d65614048565b5b826004811115611d7957611d78614048565b5b03611d9a578060116000858152602001908152602001600020600601819055505b60046011600085815260200190815260200160002060000160006101000a81548160ff02191690836004811115611dd457611dd3614048565b5b02179055508060116000858152602001908152602001600020600701819055507f5120429c88882edc469993b2f7c2d1f13287fd3ccf3ec20d28f3af207fd6b2818382604051611e25929190614a88565b60405180910390a1505050565b611e44611e3d612955565b8383612fa4565b5050565b60007f0000000000000000000000000000000000000000000000000000000000000000905090565b611e81611e7b612955565b83612b65565b611ec0576040517f08c379a0000000000000000000000000000000000000000000000000000000008152600401611eb7906144e4565b60405180910390fd5b611ecc84848484613110565b50505050565b60007f0000000000000000000000000000000000000000000000000000000000000000905090565b611f026137bd565b60116000838152602001908152602001600020604051806101000160405290816000820160009054906101000a900460ff166004811115611f4657611f45614048565b5b6004811115611f5857611f57614048565b5b81526020016001820154815260200160028201548152602001600382015481526020016004820154815260200160058201548152602001600682015481526020016007820154815250509050919050565b600860003373ffffffffffffffffffffffffffffffffffffffff1673ffffffffffffffffffffffffffffffffffffffff16815260200190815260200160002060009054906101000a900460ff16612035576040517f08c379a000000000000000000000000000000000000000000000000000000000815260040161202c90614429565b60405180910390fd5b6000600e6000858152602001908152602001600020805461205590614288565b80601f016020809104026020016040519081016040528092919081815260200182805461208190614288565b80156120ce5780601f106120a3576101008083540402835291602001916120ce565b820191906000526020600020905b8154815290600101906020018083116120b157829003601f168201915b505050505090508282600e600087815260200190815260200160002091826120f79291906146bb565b50837f19413abde56fcc8f06e83ab34ea8c33b0a6138006d0c412f68dde0d021fafb9982858560405161212c939291906147b8565b60405180910390a250505050565b60116020528060005260406000206000915090508060000160009054906101000a900460ff16908060010154908060020154908060030154908060040154908060050154908060060154908060070154905088565b606061219a8261290a565b60006006600084815260200190815260200160002080546121ba90614288565b80601f01602080910402602001604051908101604052809291908181526020018280546121e690614288565b80156122335780601f1061220857610100808354040283529160200191612233565b820191906000526020600020905b81548152906001019060200180831161221657829003601f168201915b50505050509050600061224461316c565b9050600081510361225957819250505061229c565b60008251111561228e578082604051602001612276929190614bc5565b6040516020818303038152906040529250505061229c565b61229784613183565b925050505b919050565b600a60003373ffffffffffffffffffffffffffffffffffffffff1673ffffffffffffffffffffffffffffffffffffffff16815260200190815260200160002060009054906101000a900460ff1661232d576040517f08c379a000000000000000000000000000000000000000000000000000000000815260040161232490614afd565b60405180910390fd5b6002600481111561234157612340614048565b5b6011600083815260200190815260200160002060000160009054906101000a900460ff16600481111561237757612376614048565b5b146123b7576040517f08c379a00000000000000000000000000000000000000000000000000000000081526004016123ae90614c35565b60405180910390fd5b60036011600083815260200190815260200160002060000160006101000a81548160ff021916908360048111156123f1576123f0614048565b5b021790555060004290508060116000848152602001908152602001600020600601819055507fac552b90983dcc9691c113e2233aae0c8ea2b40be12c1eeebd92a972d51f793b8282604051612447929190614a88565b60405180910390a15050565b600e602052806000526040600020600091509050805461247290614288565b80601f016020809104026020016040519081016040528092919081815260200182805461249e90614288565b80156124eb5780601f106124c0576101008083540402835291602001916124eb565b820191906000526020600020905b8154815290600101906020018083116124ce57829003601f168201915b505050505081565b6124fb612e60565b6001600860008373ffffffffffffffffffffffffffffffffffffffff1673ffffffffffffffffffffffffffffffffffffffff16815260200190815260200160002060006101000a81548160ff02191690831515021790555050565b600860003373ffffffffffffffffffffffffffffffffffffffff1673ffffffffffffffffffffffffffffffffffffffff16815260200190815260200160002060009054906101000a900460ff166125e2576040517f08c379a00000000000000000000000000000000000000000000000000000000081526004016125d990614429565b60405180910390fd5b6000600a60008373ffffffffffffffffffffffffffffffffffffffff1673ffffffffffffffffffffffffffffffffffffffff16815260200190815260200160002060006101000a81548160ff02191690831515021790555050565b6000600560008473ffffffffffffffffffffffffffffffffffffffff1673ffffffffffffffffffffffffffffffffffffffff16815260200190815260200160002060008373ffffffffffffffffffffffffffffffffffffffff1673ffffffffffffffffffffffffffffffffffffffff16815260200190815260200160002060009054906101000a900460ff16905092915050565b600d60205280600052604060002060009150905080546126f090614288565b80601f016020809104026020016040519081016040528092919081815260200182805461271c90614288565b80156127695780601f1061273e57610100808354040283529160200191612769565b820191906000526020600020905b81548152906001019060200180831161274c57829003601f168201915b505050505081565b612779612e60565b600073ffffffffffffffffffffffffffffffffffffffff168173ffffffffffffffffffffffffffffffffffffffff16036127e8576040517f08c379a00000000000000000000000000000000000000000000000000000000081526004016127df90614cc7565b60405180910390fd5b6127f181612ede565b50565b6000600860008373ffffffffffffffffffffffffffffffffffffffff1673ffffffffffffffffffffffffffffffffffffffff16815260200190815260200160002060009054906101000a900460ff169050919050565b6000600960008373ffffffffffffffffffffffffffffffffffffffff1673ffffffffffffffffffffffffffffffffffffffff16815260200190815260200160002060009054906101000a900460ff169050919050565b60007f01ffc9a7000000000000000000000000000000000000000000000000000000007bffffffffffffffffffffffffffffffffffffffffffffffffffffffff1916827bffffffffffffffffffffffffffffffffffffffffffffffffffffffff1916149050919050565b612913816131eb565b612952576040517f08c379a00000000000000000000000000000000000000000000000000000000081526004016129499061496a565b60405180910390fd5b50565b600033905090565b816004600083815260200190815260200160002060006101000a81548173ffffffffffffffffffffffffffffffffffffffff021916908373ffffffffffffffffffffffffffffffffffffffff160217905550808273ffffffffffffffffffffffffffffffffffffffff166129d08361159e565b73ffffffffffffffffffffffffffffffffffffffff167f8c5be1e5ebec7d5bd14f71427d1e84f3dd0314c0f7b2291e5b200ac8c7c3b92560405160405180910390a45050565b6000600b600084815260200190815260200160002060009054906101000a900473ffffffffffffffffffffffffffffffffffffffff1690506000600c54905060005b8351811015612b57578182612a6d9190614d16565b91506000848281518110612a8457612a83614d4a565b5b60200260200101519050826010600083815260200190815260200160002081905550612ab08484613257565b60016011600085815260200190815260200160002060000160006101000a81548160ff02191690836004811115612aea57612ae9614048565b5b02179055508060116000858152602001908152602001600020600101819055507f5f7666687319b40936f33c188908d86aea154abd3f4127b4fa0a3f04f303c7da8382604051612b3b929190614a88565b60405180910390a1508080612b4f90614d79565b915050612a58565b5080600c8190555050505050565b600080612b718361159e565b90508073ffffffffffffffffffffffffffffffffffffffff168473ffffffffffffffffffffffffffffffffffffffff161480612bb35750612bb2818561263d565b5b80612bf157508373ffffffffffffffffffffffffffffffffffffffff16612bd984610ad0565b73ffffffffffffffffffffffffffffffffffffffff16145b91505092915050565b8273ffffffffffffffffffffffffffffffffffffffff16612c1a8261159e565b73ffffffffffffffffffffffffffffffffffffffff1614612c70576040517f08c379a0000000000000000000000000000000000000000000000000000000008152600401612c6790614e33565b60405180910390fd5b600073ffffffffffffffffffffffffffffffffffffffff168273ffffffffffffffffffffffffffffffffffffffff1603612cdf576040517f08c379a0000000000000000000000000000000000000000000000000000000008152600401612cd690614ec5565b60405180910390fd5b612cea838383613275565b612cf560008261295d565b6001600360008573ffffffffffffffffffffffffffffffffffffffff1673ffffffffffffffffffffffffffffffffffffffff1681526020019081526020016000206000828254612d459190614ee5565b925050819055506001600360008473ffffffffffffffffffffffffffffffffffffffff1673ffffffffffffffffffffffffffffffffffffffff1681526020019081526020016000206000828254612d9c9190614d16565b92505081905550816002600083815260200190815260200160002060006101000a81548173ffffffffffffffffffffffffffffffffffffffff021916908373ffffffffffffffffffffffffffffffffffffffff160217905550808273ffffffffffffffffffffffffffffffffffffffff168473ffffffffffffffffffffffffffffffffffffffff167fddf252ad1be2c89b69c2b068fc378daa952ba7f163c4a11628f55a4df523b3ef60405160405180910390a4612e5b83838361327a565b505050565b612e68612955565b73ffffffffffffffffffffffffffffffffffffffff16612e86611995565b73ffffffffffffffffffffffffffffffffffffffff1614612edc576040517f08c379a0000000000000000000000000000000000000000000000000000000008152600401612ed390614f65565b60405180910390fd5b565b6000600760009054906101000a900473ffffffffffffffffffffffffffffffffffffffff16905081600760006101000a81548173ffffffffffffffffffffffffffffffffffffffff021916908373ffffffffffffffffffffffffffffffffffffffff1602179055508173ffffffffffffffffffffffffffffffffffffffff168173ffffffffffffffffffffffffffffffffffffffff167f8be0079c531659141344cd1fd0a4f28419497f9722a3daafe3b4186f6b6457e060405160405180910390a35050565b8173ffffffffffffffffffffffffffffffffffffffff168373ffffffffffffffffffffffffffffffffffffffff1603613012576040517f08c379a000000000000000000000000000000000000000000000000000000000815260040161300990614fd1565b60405180910390fd5b80600560008573ffffffffffffffffffffffffffffffffffffffff1673ffffffffffffffffffffffffffffffffffffffff16815260200190815260200160002060008473ffffffffffffffffffffffffffffffffffffffff1673ffffffffffffffffffffffffffffffffffffffff16815260200190815260200160002060006101000a81548160ff0219169083151502179055508173ffffffffffffffffffffffffffffffffffffffff168373ffffffffffffffffffffffffffffffffffffffff167f17307eab39ab6107e8899845ad3d59bd9653f200f220920489ca2b5937696c31836040516131039190613955565b60405180910390a3505050565b61311b848484612bfa565b6131278484848461327f565b613166576040517f08c379a000000000000000000000000000000000000000000000000000000000815260040161315d90615063565b60405180910390fd5b50505050565b606060405180602001604052806000815250905090565b606061318e8261290a565b600061319861316c565b905060008151116131b857604051806020016040528060008152506131e3565b806131c284613406565b6040516020016131d3929190614bc5565b6040516020818303038152906040525b915050919050565b60008073ffffffffffffffffffffffffffffffffffffffff166002600084815260200190815260200160002060009054906101000a900473ffffffffffffffffffffffffffffffffffffffff1673ffffffffffffffffffffffffffffffffffffffff1614159050919050565b613271828260405180602001604052806000815250613566565b5050565b505050565b505050565b60006132a08473ffffffffffffffffffffffffffffffffffffffff166135c1565b156133f9578373ffffffffffffffffffffffffffffffffffffffff1663150b7a026132c9612955565b8786866040518563ffffffff1660e01b81526004016132eb94939291906150d8565b6020604051808303816000875af192505050801561332757506040513d601f19601f820116820180604052508101906133249190615139565b60015b6133a9573d8060008114613357576040519150601f19603f3d011682016040523d82523d6000602084013e61335c565b606091505b5060008151036133a1576040517f08c379a000000000000000000000000000000000000000000000000000000000815260040161339890615063565b60405180910390fd5b805181602001fd5b63150b7a0260e01b7bffffffffffffffffffffffffffffffffffffffffffffffffffffffff1916817bffffffffffffffffffffffffffffffffffffffffffffffffffffffff1916149150506133fe565b600190505b949350505050565b60606000820361344d576040518060400160405280600181526020017f30000000000000000000000000000000000000000000000000000000000000008152509050613561565b600082905060005b6000821461347f57808061346890614d79565b915050600a826134789190615195565b9150613455565b60008167ffffffffffffffff81111561349b5761349a613b1c565b5b6040519080825280601f01601f1916602001820160405280156134cd5781602001600182028036833780820191505090505b5090505b6000851461355a576001826134e69190614ee5565b9150600a856134f591906151c6565b60306135019190614d16565b60f81b81838151811061351757613516614d4a565b5b60200101907effffffffffffffffffffffffffffffffffffffffffffffffffffffffffffff1916908160001a905350600a856135539190615195565b94506134d1565b8093505050505b919050565b61357083836135e4565b61357d600084848461327f565b6135bc576040517f08c379a00000000000000000000000000000000000000000000000000000000081526004016135b390615063565b60405180910390fd5b505050565b6000808273ffffffffffffffffffffffffffffffffffffffff163b119050919050565b600073ffffffffffffffffffffffffffffffffffffffff168273ffffffffffffffffffffffffffffffffffffffff1603613653576040517f08c379a000000000000000000000000000000000000000000000000000000000815260040161364a90615243565b60405180910390fd5b61365c816131eb565b1561369c576040517f08c379a0000000000000000000000000000000000000000000000000000000008152600401613693906152af565b60405180910390fd5b6136a860008383613275565b6001600360008473ffffffffffffffffffffffffffffffffffffffff1673ffffffffffffffffffffffffffffffffffffffff16815260200190815260200160002060008282546136f89190614d16565b92505081905550816002600083815260200190815260200160002060006101000a81548173ffffffffffffffffffffffffffffffffffffffff021916908373ffffffffffffffffffffffffffffffffffffffff160217905550808273ffffffffffffffffffffffffffffffffffffffff16600073ffffffffffffffffffffffffffffffffffffffff167fddf252ad1be2c89b69c2b068fc378daa952ba7f163c4a11628f55a4df523b3ef60405160405180910390a46137b96000838361327a565b5050565b604051806101000160405280600060048111156137dd576137dc614048565b5b8152602001600081526020016000815260200160008152602001600081526020016000815260200160008152602001600081525090565b6000604051905090565b600080fd5b600080fd5b6000819050919050565b61383b81613828565b811461384657600080fd5b50565b60008135905061385881613832565b92915050565b6000602082840312156138745761387361381e565b5b600061388284828501613849565b91505092915050565b61389481613828565b82525050565b60006020820190506138af600083018461388b565b92915050565b60007fffffffff0000000000000000000000000000000000000000000000000000000082169050919050565b6138ea816138b5565b81146138f557600080fd5b50565b600081359050613907816138e1565b92915050565b6000602082840312156139235761392261381e565b5b6000613931848285016138f8565b91505092915050565b60008115159050919050565b61394f8161393a565b82525050565b600060208201905061396a6000830184613946565b92915050565b600081519050919050565b600082825260208201905092915050565b60005b838110156139aa57808201518184015260208101905061398f565b60008484015250505050565b6000601f19601f8301169050919050565b60006139d282613970565b6139dc818561397b565b93506139ec81856020860161398c565b6139f5816139b6565b840191505092915050565b60006020820190508181036000830152613a1a81846139c7565b905092915050565b600073ffffffffffffffffffffffffffffffffffffffff82169050919050565b6000613a4d82613a22565b9050919050565b613a5d81613a42565b82525050565b6000602082019050613a786000830184613a54565b92915050565b613a8781613a42565b8114613a9257600080fd5b50565b600081359050613aa481613a7e565b92915050565b60008060408385031215613ac157613ac061381e565b5b6000613acf85828601613a95565b9250506020613ae085828601613849565b9150509250929050565b600060208284031215613b0057613aff61381e565b5b6000613b0e84828501613a95565b91505092915050565b600080fd5b7f4e487b7100000000000000000000000000000000000000000000000000000000600052604160045260246000fd5b613b54826139b6565b810181811067ffffffffffffffff82111715613b7357613b72613b1c565b5b80604052505050565b6000613b86613814565b9050613b928282613b4b565b919050565b600067ffffffffffffffff821115613bb257613bb1613b1c565b5b602082029050602081019050919050565b600080fd5b6000613bdb613bd684613b97565b613b7c565b90508083825260208201905060208402830185811115613bfe57613bfd613bc3565b5b835b81811015613c275780613c138882613849565b845260208401935050602081019050613c00565b5050509392505050565b600082601f830112613c4657613c45613b17565b5b8135613c56848260208601613bc8565b91505092915050565b60008060408385031215613c7657613c7561381e565b5b6000613c8485828601613849565b925050602083013567ffffffffffffffff811115613ca557613ca4613823565b5b613cb185828601613c31565b9150509250929050565b600080600060608486031215613cd457613cd361381e565b5b6000613ce286828701613a95565b9350506020613cf386828701613a95565b9250506040613d0486828701613849565b9150509250925092565b600080fd5b60008083601f840112613d2957613d28613b17565b5b8235905067ffffffffffffffff811115613d4657613d45613d0e565b5b602083019150836001820283011115613d6257613d61613bc3565b5b9250929050565b600080600060408486031215613d8257613d8161381e565b5b6000613d9086828701613849565b935050602084013567ffffffffffffffff811115613db157613db0613823565b5b613dbd86828701613d13565b92509250509250925092565b600063ffffffff82169050919050565b613de281613dc9565b8114613ded57600080fd5b50565b600081359050613dff81613dd9565b92915050565b600060208284031215613e1b57613e1a61381e565b5b6000613e2984828501613df0565b91505092915050565b600067ffffffffffffffff82169050919050565b613e4f81613e32565b82525050565b6000602082019050613e6a6000830184613e46565b92915050565b613e798161393a565b8114613e8457600080fd5b50565b600081359050613e9681613e70565b92915050565b60008060408385031215613eb357613eb261381e565b5b6000613ec185828601613a95565b9250506020613ed285828601613e87565b9150509250929050565b600080fd5b600067ffffffffffffffff821115613efc57613efb613b1c565b5b613f05826139b6565b9050602081019050919050565b82818337600083830152505050565b6000613f34613f2f84613ee1565b613b7c565b905082815260208101848484011115613f5057613f4f613edc565b5b613f5b848285613f12565b509392505050565b600082601f830112613f7857613f77613b17565b5b8135613f88848260208601613f21565b91505092915050565b60008060008060808587031215613fab57613faa61381e565b5b6000613fb987828801613a95565b9450506020613fca87828801613a95565b9350506040613fdb87828801613849565b925050606085013567ffffffffffffffff811115613ffc57613ffb613823565b5b61400887828801613f63565b91505092959194509250565b6000819050919050565b61402781614014565b82525050565b6000602082019050614042600083018461401e565b92915050565b7f4e487b7100000000000000000000000000000000000000000000000000000000600052602160045260246000fd5b6005811061408857614087614048565b5b50565b600081905061409982614077565b919050565b60006140a98261408b565b9050919050565b6140b98161409e565b82525050565b6140c881613828565b82525050565b610100820160008201516140e560008501826140b0565b5060208201516140f860208501826140bf565b50604082015161410b60408501826140bf565b50606082015161411e60608501826140bf565b50608082015161413160808501826140bf565b5060a082015161414460a08501826140bf565b5060c082015161415760c08501826140bf565b5060e082015161416a60e08501826140bf565b50505050565b60006101008201905061418660008301846140ce565b92915050565b6141958161409e565b82525050565b6000610100820190506141b1600083018b61418c565b6141be602083018a61388b565b6141cb604083018961388b565b6141d8606083018861388b565b6141e5608083018761388b565b6141f260a083018661388b565b6141ff60c083018561388b565b61420c60e083018461388b565b9998505050505050505050565b600080604083850312156142305761422f61381e565b5b600061423e85828601613a95565b925050602061424f85828601613a95565b9150509250929050565b7f4e487b7100000000000000000000000000000000000000000000000000000000600052602260045260246000fd5b600060028204905060018216806142a057607f821691505b6020821081036142b3576142b2614259565b5b50919050565b7f4552433732313a20617070726f76616c20746f2063757272656e74206f776e6560008201527f7200000000000000000000000000000000000000000000000000000000000000602082015250565b600061431560218361397b565b9150614320826142b9565b604082019050919050565b6000602082019050818103600083015261434481614308565b9050919050565b7f4552433732313a20617070726f76652063616c6c6572206973206e6f7420746f60008201527f6b656e206f776e6572206e6f7220617070726f76656420666f7220616c6c0000602082015250565b60006143a7603e8361397b565b91506143b28261434b565b604082019050919050565b600060208201905081810360008301526143d68161439a565b9050919050565b7f43616c6c6572206973206e6f7420746865206d616e6167657200000000000000600082015250565b600061441360198361397b565b915061441e826143dd565b602082019050919050565b6000602082019050818103600083015261444281614406565b9050919050565b600060408201905061445e6000830185613a54565b61446b6020830184613a54565b9392505050565b7f4552433732313a2063616c6c6572206973206e6f7420746f6b656e206f776e6560008201527f72206e6f7220617070726f766564000000000000000000000000000000000000602082015250565b60006144ce602e8361397b565b91506144d982614472565b604082019050919050565b600060208201905081810360008301526144fd816144c1565b9050919050565b600082905092915050565b60008190508160005260206000209050919050565b60006020601f8301049050919050565b600082821b905092915050565b6000600883026145717fffffffffffffffffffffffffffffffffffffffffffffffffffffffffffffffff82614534565b61457b8683614534565b95508019841693508086168417925050509392505050565b6000819050919050565b60006145b86145b36145ae84613828565b614593565b613828565b9050919050565b6000819050919050565b6145d28361459d565b6145e66145de826145bf565b848454614541565b825550505050565b600090565b6145fb6145ee565b6146068184846145c9565b505050565b5b8181101561462a5761461f6000826145f3565b60018101905061460c565b5050565b601f82111561466f576146408161450f565b61464984614524565b81016020851015614658578190505b61466c61466485614524565b83018261460b565b50505b505050565b600082821c905092915050565b600061469260001984600802614674565b1980831691505092915050565b60006146ab8383614681565b9150826002028217905092915050565b6146c58383614504565b67ffffffffffffffff8111156146de576146dd613b1c565b5b6146e88254614288565b6146f382828561462e565b6000601f8311600181146147225760008415614710578287013590505b61471a858261469f565b865550614782565b601f1984166147308661450f565b60005b8281101561475857848901358255600182019150602085019450602081019050614733565b868310156147755784890135614771601f891682614681565b8355505b6001600288020188555050505b50505050505050565b6000614797838561397b565b93506147a4838584613f12565b6147ad836139b6565b840190509392505050565b600060408201905081810360008301526147d281866139c7565b905081810360208301526147e781848661478b565b9050949350505050565b7f43616c6c6572206973206e6f74207468652070726f6475636572000000000000600082015250565b6000614827601a8361397b565b9150614832826147f1565b602082019050919050565b600060208201905081810360008301526148568161481a565b9050919050565b600061ffff82169050919050565b6148748161485d565b82525050565b61488381613dc9565b82525050565b600060a08201905061489e600083018861401e565b6148ab6020830187613e46565b6148b8604083018661486b565b6148c5606083018561487a565b6148d2608083018461487a565b9695505050505050565b6000815190506148eb81613832565b92915050565b6000602082840312156149075761490661381e565b5b6000614915848285016148dc565b91505092915050565b7f4552433732313a20696e76616c696420746f6b656e2049440000000000000000600082015250565b600061495460188361397b565b915061495f8261491e565b602082019050919050565b6000602082019050818103600083015261498381614947565b9050919050565b7f4552433732313a2061646472657373207a65726f206973206e6f74206120766160008201527f6c6964206f776e65720000000000000000000000000000000000000000000000602082015250565b60006149e660298361397b565b91506149f18261498a565b604082019050919050565b60006020820190508181036000830152614a15816149d9565b9050919050565b7f546f6b656e206e6f7420726561647920746f2070726f64756365000000000000600082015250565b6000614a52601a8361397b565b9150614a5d82614a1c565b602082019050919050565b60006020820190508181036000830152614a8181614a45565b9050919050565b6000604082019050614a9d600083018561388b565b614aaa602083018461388b565b9392505050565b7f43616c6c6572206973206e6f7420746865207375706c69657200000000000000600082015250565b6000614ae760198361397b565b9150614af282614ab1565b602082019050919050565b60006020820190508181036000830152614b1681614ada565b9050919050565b7f546f6b656e206e6f7420726561647920746f2073616c65000000000000000000600082015250565b6000614b5360178361397b565b9150614b5e82614b1d565b602082019050919050565b60006020820190508181036000830152614b8281614b46565b9050919050565b600081905092915050565b6000614b9f82613970565b614ba98185614b89565b9350614bb981856020860161398c565b80840191505092915050565b6000614bd18285614b94565b9150614bdd8284614b94565b91508190509392505050565b7f546f6b656e206e6f7420726561647920746f206d6f766520696e2073746f636b600082015250565b6000614c1f60208361397b565b9150614c2a82614be9565b602082019050919050565b60006020820190508181036000830152614c4e81614c12565b9050919050565b7f4f776e61626c653a206e6577206f776e657220697320746865207a65726f206160008201527f6464726573730000000000000000000000000000000000000000000000000000602082015250565b6000614cb160268361397b565b9150614cbc82614c55565b604082019050919050565b60006020820190508181036000830152614ce081614ca4565b9050919050565b7f4e487b7100000000000000000000000000000000000000000000000000000000600052601160045260246000fd5b6000614d2182613828565b9150614d2c83613828565b9250828201905080821115614d4457614d43614ce7565b5b92915050565b7f4e487b7100000000000000000000000000000000000000000000000000000000600052603260045260246000fd5b6000614d8482613828565b91507fffffffffffffffffffffffffffffffffffffffffffffffffffffffffffffffff8203614db657614db5614ce7565b5b600182019050919050565b7f4552433732313a207472616e736665722066726f6d20696e636f72726563742060008201527f6f776e6572000000000000000000000000000000000000000000000000000000602082015250565b6000614e1d60258361397b565b9150614e2882614dc1565b604082019050919050565b60006020820190508181036000830152614e4c81614e10565b9050919050565b7f4552433732313a207472616e7366657220746f20746865207a65726f2061646460008201527f7265737300000000000000000000000000000000000000000000000000000000602082015250565b6000614eaf60248361397b565b9150614eba82614e53565b604082019050919050565b60006020820190508181036000830152614ede81614ea2565b9050919050565b6000614ef082613828565b9150614efb83613828565b9250828203905081811115614f1357614f12614ce7565b5b92915050565b7f4f776e61626c653a2063616c6c6572206973206e6f7420746865206f776e6572600082015250565b6000614f4f60208361397b565b9150614f5a82614f19565b602082019050919050565b60006020820190508181036000830152614f7e81614f42565b9050919050565b7f4552433732313a20617070726f766520746f2063616c6c657200000000000000600082015250565b6000614fbb60198361397b565b9150614fc682614f85565b602082019050919050565b60006020820190508181036000830152614fea81614fae565b9050919050565b7f4552433732313a207472616e7366657220746f206e6f6e20455243373231526560008201527f63656976657220696d706c656d656e7465720000000000000000000000000000602082015250565b600061504d60328361397b565b915061505882614ff1565b604082019050919050565b6000602082019050818103600083015261507c81615040565b9050919050565b600081519050919050565b600082825260208201905092915050565b60006150aa82615083565b6150b4818561508e565b93506150c481856020860161398c565b6150cd816139b6565b840191505092915050565b60006080820190506150ed6000830187613a54565b6150fa6020830186613a54565b615107604083018561388b565b8181036060830152615119818461509f565b905095945050505050565b600081519050615133816138e1565b92915050565b60006020828403121561514f5761514e61381e565b5b600061515d84828501615124565b91505092915050565b7f4e487b7100000000000000000000000000000000000000000000000000000000600052601260045260246000fd5b60006151a082613828565b91506151ab83613828565b9250826151bb576151ba615166565b5b828204905092915050565b60006151d182613828565b91506151dc83613828565b9250826151ec576151eb615166565b5b828206905092915050565b7f4552433732313a206d696e7420746f20746865207a65726f2061646472657373600082015250565b600061522d60208361397b565b9150615238826151f7565b602082019050919050565b6000602082019050818103600083015261525c81615220565b9050919050565b7f4552433732313a20746f6b656e20616c7265616479206d696e74656400000000600082015250565b6000615299601c8361397b565b91506152a482615263565b602082019050919050565b600060208201905081810360008301526152c88161528c565b905091905056fea2646970667358221220fea40549fd7713d07e3c86fd14c803c83da870106669d873e52f34345f00447a64736f6c63430008110033",
  "linkReferences": {},
  "deployedLinkReferences": {}
}